{
  "contractName": "CourseWork",
  "abi": [
    {
      "anonymous": false,
      "inputs": [
        {
          "indexed": true,
          "name": "sender",
          "type": "address"
        },
        {
          "indexed": false,
          "name": "courseworkId",
          "type": "string"
        },
        {
          "indexed": false,
          "name": "courseName",
          "type": "string"
        },
        {
          "indexed": false,
          "name": "timestamp",
          "type": "uint256"
        }
      ],
      "name": "DocumentSubmitted",
      "type": "event",
      "signature": "0x175eee4d4f8dfad2f579d81d7006e5bf24defbcc51d00e18fddcda6c00304350"
    },
    {
      "constant": false,
      "inputs": [
        {
          "name": "_courseWorkName",
          "type": "string"
        },
        {
          "name": "_moduleLeaderAddress",
          "type": "address"
        },
        {
          "name": "_courseworkId",
          "type": "string"
        },
        {
          "name": "_timestamp",
          "type": "uint256"
        },
        {
          "name": "_courseName",
          "type": "string"
        }
      ],
      "name": "submitCoursework",
      "outputs": [],
      "payable": false,
      "stateMutability": "nonpayable",
      "type": "function",
      "signature": "0x08f09718"
    },
    {
      "constant": true,
      "inputs": [
        {
          "name": "_courseName",
          "type": "string"
        }
      ],
      "name": "getCourseworkList",
      "outputs": [
        {
          "components": [
            {
              "name": "courseWorkName",
              "type": "string"
            },
            {
              "name": "moduleLeaderAddress",
              "type": "address"
            },
            {
              "name": "courseworkId",
              "type": "string"
            },
            {
              "name": "timestamp",
              "type": "uint256"
            },
            {
              "name": "courseName",
              "type": "string"
            }
          ],
          "name": "",
          "type": "tuple[]"
        }
      ],
      "payable": false,
      "stateMutability": "view",
      "type": "function",
      "signature": "0x0a6e84ae"
    }
  ],
  "bytecode": "0x608060405234801561001057600080fd5b506111c7806100206000396000f3fe60806040526004361061004c576000357c0100000000000000000000000000000000000000000000000000000000900463ffffffff16806308f09718146100515780630a6e84ae1461007a575b600080fd5b34801561005d57600080fd5b5061007860048036036100739190810190610d55565b6100b7565b005b34801561008657600080fd5b506100a1600480360361009c9190810190610d14565b6105d6565b6040516100ae9190610fc7565b60405180910390f35b6001836040518082805190602001908083835b6020831015156100ef57805182526020820191506020810190506020830392506100ca565b6001836020036101000a038019825116818451168082178552505050505050905001915050908152602001604051809103902060009054906101000a900460ff16151515610172576040517f08c379a00000000000000000000000000000000000000000000000000000000081526004016101699061102e565b60405180910390fd5b600180846040518082805190602001908083835b6020831015156101ab5780518252602082019150602081019050602083039250610186565b6001836020036101000a038019825116818451168082178552505050505050905001915050908152602001604051809103902060006101000a81548160ff0219169083151502179055506101fd610ae5565b60a0604051908101604052808781526020018673ffffffffffffffffffffffffffffffffffffffff168152602001858152602001848152602001838152509050806000856040518082805190602001908083835b6020831015156102765780518252602082019150602081019050602083039250610251565b6001836020036101000a038019825116818451168082178552505050505050905001915050908152602001604051809103902060008201518160000190805190602001906102c5929190610b2b565b5060208201518160010160006101000a81548173ffffffffffffffffffffffffffffffffffffffff021916908373ffffffffffffffffffffffffffffffffffffffff1602179055506040820151816002019080519060200190610329929190610b2b565b50606082015181600301556080820151816004019080519060200190610350929190610b2b565b50905050806003836040518082805190602001908083835b60208310151561038d5780518252602082019150602081019050602083039250610368565b6001836020036101000a0380198251168184511680821785525050505050509050019150509081526020016040518091039020856040518082805190602001908083835b6020831015156103f657805182526020820191506020810190506020830392506103d1565b6001836020036101000a03801982511681845116808217855250505050505090500191505090815260200160405180910390206000820151816000019080519060200190610445929190610b2b565b5060208201518160010160006101000a81548173ffffffffffffffffffffffffffffffffffffffff021916908373ffffffffffffffffffffffffffffffffffffffff16021790555060408201518160020190805190602001906104a9929190610b2b565b506060820151816003015560808201518160040190805190602001906104d0929190610b2b565b509050506002826040518082805190602001908083835b60208310151561050c57805182526020820191506020810190506020830392506104e7565b6001836020036101000a038019825116818451168082178552505050505050905001915050908152602001604051809103902084908060018154018082558091505090600182039060005260206000200160009091929091909150908051906020019061057a929190610bab565b50503373ffffffffffffffffffffffffffffffffffffffff167f175eee4d4f8dfad2f579d81d7006e5bf24defbcc51d00e18fddcda6c003043508584866040516105c693929190610fe9565b60405180910390a2505050505050565b6060806002836040518082805190602001908083835b60208310151561061157805182526020820191506020810190506020830392506105ec565b6001836020036101000a0380198251168184511680821785525050505050509050019150509081526020016040518091039020805480602002602001604051908101604052809291908181526020016000905b82821015610720578382906000526020600020018054600181600116156101000203166002900480601f01602080910402602001604051908101604052809291908181526020018280546001816001161561010002031660029004801561070c5780601f106106e15761010080835404028352916020019161070c565b820191906000526020600020905b8154815290600101906020018083116106ef57829003601f168201915b505050505081526020019060010190610664565b5050505090506060815160405190808252806020026020018201604052801561076357816020015b610750610c2b565b8152602001906001900390816107485790505b50905060008090505b8251811015610ada576003856040518082805190602001908083835b6020831015156107ad5780518252602082019150602081019050602083039250610788565b6001836020036101000a038019825116818451168082178552505050505050905001915050908152602001604051809103902083828151811015156107ee57fe5b906020019060200201516040518082805190602001908083835b60208310151561082d5780518252602082019150602081019050602083039250610808565b6001836020036101000a038019825116818451168082178552505050505050905001915050908152602001604051809103902060a06040519081016040529081600082018054600181600116156101000203166002900480601f0160208091040260200160405190810160405280929190818152602001828054600181600116156101000203166002900480156109055780601f106108da57610100808354040283529160200191610905565b820191906000526020600020905b8154815290600101906020018083116108e857829003601f168201915b505050505081526020016001820160009054906101000a900473ffffffffffffffffffffffffffffffffffffffff1673ffffffffffffffffffffffffffffffffffffffff1673ffffffffffffffffffffffffffffffffffffffff168152602001600282018054600181600116156101000203166002900480601f0160208091040260200160405190810160405280929190818152602001828054600181600116156101000203166002900480156109fd5780601f106109d2576101008083540402835291602001916109fd565b820191906000526020600020905b8154815290600101906020018083116109e057829003601f168201915b5050505050815260200160038201548152602001600482018054600181600116156101000203166002900480601f016020809104026020016040519081016040528092919081815260200182805460018160011615610100020316600290048015610aa95780601f10610a7e57610100808354040283529160200191610aa9565b820191906000526020600020905b815481529060010190602001808311610a8c57829003601f168201915b5050505050815250508282815181101515610ac057fe5b90602001906020020181905250808060010191505061076c565b508092505050919050565b60a06040519081016040528060608152602001600073ffffffffffffffffffffffffffffffffffffffff1681526020016060815260200160008152602001606081525090565b828054600181600116156101000203166002900490600052602060002090601f016020900481019282601f10610b6c57805160ff1916838001178555610b9a565b82800160010185558215610b9a579182015b82811115610b99578251825591602001919060010190610b7e565b5b509050610ba79190610c71565b5090565b828054600181600116156101000203166002900490600052602060002090601f016020900481019282601f10610bec57805160ff1916838001178555610c1a565b82800160010185558215610c1a579182015b82811115610c19578251825591602001919060010190610bfe565b5b509050610c279190610c71565b5090565b60a06040519081016040528060608152602001600073ffffffffffffffffffffffffffffffffffffffff1681526020016060815260200160008152602001606081525090565b610c9391905b80821115610c8f576000816000905550600101610c77565b5090565b90565b6000610ca2823561111e565b905092915050565b600082601f8301121515610cbd57600080fd5b8135610cd0610ccb8261107b565b61104e565b91508082526020830160208301858383011115610cec57600080fd5b610cf783828461113a565b50505092915050565b6000610d0c8235611130565b905092915050565b600060208284031215610d2657600080fd5b600082013567ffffffffffffffff811115610d4057600080fd5b610d4c84828501610caa565b91505092915050565b600080600080600060a08688031215610d6d57600080fd5b600086013567ffffffffffffffff811115610d8757600080fd5b610d9388828901610caa565b9550506020610da488828901610c96565b945050604086013567ffffffffffffffff811115610dc157600080fd5b610dcd88828901610caa565b9350506060610dde88828901610d00565b925050608086013567ffffffffffffffff811115610dfb57600080fd5b610e0788828901610caa565b9150509295509295909350565b610e1d816110e2565b82525050565b6000610e2e826110b4565b80845260208401935083602082028501610e47856110a7565b60005b84811015610e80578383038852610e62838351610f34565b9250610e6d826110d5565b9150602088019750600181019050610e4a565b508196508694505050505092915050565b6000610e9c826110ca565b808452610eb0816020860160208601611149565b610eb98161117c565b602085010191505092915050565b6000610ed2826110bf565b808452610ee6816020860160208601611149565b610eef8161117c565b602085010191505092915050565b6000601482527f436f75727365776f726b204944206578697374730000000000000000000000006020830152604082019050919050565b600060a0830160008301518482036000860152610f518282610ec7565b9150506020830151610f666020860182610e14565b5060408301518482036040860152610f7e8282610ec7565b9150506060830151610f936060860182610fb8565b5060808301518482036080860152610fab8282610ec7565b9150508091505092915050565b610fc181611114565b82525050565b60006020820190508181036000830152610fe18184610e23565b905092915050565b600060608201905081810360008301526110038186610e91565b905081810360208301526110178185610e91565b90506110266040830184610fb8565b949350505050565b6000602082019050818103600083015261104781610efd565b9050919050565b6000604051905081810181811067ffffffffffffffff8211171561107157600080fd5b8060405250919050565b600067ffffffffffffffff82111561109257600080fd5b601f19601f8301169050602081019050919050565b6000602082019050919050565b600081519050919050565b600081519050919050565b600081519050919050565b6000602082019050919050565b60006110ed826110f4565b9050919050565b600073ffffffffffffffffffffffffffffffffffffffff82169050919050565b6000819050919050565b6000611129826110f4565b9050919050565b6000819050919050565b82818337600083830152505050565b60005b8381101561116757808201518184015260208101905061114c565b83811115611176576000848401525b50505050565b6000601f19601f830116905091905056fea265627a7a7230582023a285ac12a331e9807e5fefa5c55593e000d858093139ff5607284699a6c94d6c6578706572696d656e74616cf50037",
  "source": "pragma solidity 0.5.0;\r\npragma experimental ABIEncoderV2;\r\n\r\ncontract CourseWork {\r\n    struct Coursework {\r\n        string courseWorkName;\r\n        address moduleLeaderAddress;\r\n        string courseworkId;\r\n        uint256 timestamp;\r\n        string courseName;\r\n    }\r\n\r\n    mapping(string => Coursework) private work;\r\n    mapping(string => bool) private courseWorkId;\r\n    mapping(string => string[]) private courseWorkKeys;\r\n    mapping(string => mapping(string => Coursework)) private courseWorkList;\r\n\r\n    function submitCoursework(\r\n        string memory _courseWorkName,\r\n        address _moduleLeaderAddress,\r\n        string memory _courseworkId,\r\n        uint256 _timestamp,\r\n        string memory _courseName\r\n    ) public {\r\n        require(!courseWorkId[_courseworkId], \"Coursework ID exists\");\r\n        courseWorkId[_courseworkId] = true;\r\n\r\n        Coursework memory newCoursework = Coursework({\r\n            courseWorkName: _courseWorkName,\r\n            moduleLeaderAddress: _moduleLeaderAddress,\r\n            courseworkId: _courseworkId,\r\n            timestamp: _timestamp,\r\n            courseName: _courseName\r\n        });\r\n\r\n        work[_courseworkId] = newCoursework;\r\n        courseWorkList[_courseName][_courseworkId] = newCoursework;\r\n        courseWorkKeys[_courseName].push(_courseworkId);\r\n\r\n        emit DocumentSubmitted(msg.sender, _courseworkId, _courseName, _timestamp);\r\n    }\r\n\r\n    function getCourseworkList(string memory _courseName) public view returns (Coursework[] memory) {\r\n        string[] memory keys = courseWorkKeys[_courseName];\r\n        Coursework[] memory courseworkArray = new Coursework[](keys.length);\r\n\r\n        for (uint256 i = 0; i < keys.length; i++) {\r\n            courseworkArray[i] = courseWorkList[_courseName][keys[i]];\r\n        }\r\n\r\n        return courseworkArray;\r\n    }\r\n\r\n    event DocumentSubmitted(\r\n        address indexed sender,\r\n        string courseworkId,\r\n        string courseName,\r\n        uint256 timestamp\r\n    );\r\n}",
  "sourcePath": "C:/Users/HP/project/src/contracts/Coursework.sol",
  "compiler": {
    "name": "solc",
    "version": "0.5.0+commit.1d4f565a.Emscripten.clang"
  },
  "schemaVersion": "3.0.2",
  "updatedAt": "2023-08-20T16:08:25.596Z",
  "devdoc": {
    "methods": {}
  },
  "userdoc": {
    "methods": {}
  }
}