{
  "contractName": "CourseWork",
  "abi": [
    {
      "anonymous": false,
      "inputs": [
        {
          "indexed": true,
          "name": "sender",
          "type": "address"
        },
        {
          "indexed": false,
          "name": "courseworkId",
          "type": "string"
        },
        {
          "indexed": false,
          "name": "courseName",
          "type": "string"
        },
        {
          "indexed": false,
          "name": "timestamp",
          "type": "uint256"
        }
      ],
      "name": "DocumentSubmitted",
      "type": "event",
      "signature": "0x175eee4d4f8dfad2f579d81d7006e5bf24defbcc51d00e18fddcda6c00304350"
    },
    {
      "constant": false,
      "inputs": [
        {
          "name": "_courseWorkName",
          "type": "string"
        },
        {
          "name": "_moduleLeaderAddress",
          "type": "address"
        },
        {
          "name": "_courseworkId",
          "type": "string"
        },
        {
          "name": "_courseName",
          "type": "string"
        }
      ],
      "name": "submitCoursework",
      "outputs": [],
      "payable": false,
      "stateMutability": "nonpayable",
      "type": "function",
      "signature": "0x758d9f4f"
    },
    {
      "constant": true,
      "inputs": [
        {
          "name": "_courseName",
          "type": "string"
        }
      ],
      "name": "getCourseworkList",
      "outputs": [
        {
          "components": [
            {
              "name": "courseWorkName",
              "type": "string"
            },
            {
              "name": "moduleLeaderAddress",
              "type": "address"
            },
            {
              "name": "courseworkId",
              "type": "string"
            },
            {
              "name": "timestamp",
              "type": "uint256"
            },
            {
              "name": "courseName",
              "type": "string"
            }
          ],
          "name": "",
          "type": "tuple[]"
        }
      ],
      "payable": false,
      "stateMutability": "view",
      "type": "function",
      "signature": "0x0a6e84ae"
    }
  ],
  "bytecode": "0x608060405234801561001057600080fd5b50611194806100206000396000f3fe60806040526004361061004c576000357c0100000000000000000000000000000000000000000000000000000000900463ffffffff1680630a6e84ae14610051578063758d9f4f1461008e575b600080fd5b34801561005d57600080fd5b5061007860048036036100739190810190610cff565b6100b7565b6040516100859190610f9e565b60405180910390f35b34801561009a57600080fd5b506100b560048036036100b09190810190610d40565b6105c6565b005b6060806002836040518082805190602001908083835b6020831015156100f257805182526020820191506020810190506020830392506100cd565b6001836020036101000a0380198251168184511680821785525050505050509050019150509081526020016040518091039020805480602002602001604051908101604052809291908181526020016000905b82821015610201578382906000526020600020018054600181600116156101000203166002900480601f0160208091040260200160405190810160405280929190818152602001828054600181600116156101000203166002900480156101ed5780601f106101c2576101008083540402835291602001916101ed565b820191906000526020600020905b8154815290600101906020018083116101d057829003601f168201915b505050505081526020019060010190610145565b5050505090506060815160405190808252806020026020018201604052801561024457816020015b610231610ae4565b8152602001906001900390816102295790505b50905060008090505b82518110156105bb576003856040518082805190602001908083835b60208310151561028e5780518252602082019150602081019050602083039250610269565b6001836020036101000a038019825116818451168082178552505050505050905001915050908152602001604051809103902083828151811015156102cf57fe5b906020019060200201516040518082805190602001908083835b60208310151561030e57805182526020820191506020810190506020830392506102e9565b6001836020036101000a038019825116818451168082178552505050505050905001915050908152602001604051809103902060a06040519081016040529081600082018054600181600116156101000203166002900480601f0160208091040260200160405190810160405280929190818152602001828054600181600116156101000203166002900480156103e65780601f106103bb576101008083540402835291602001916103e6565b820191906000526020600020905b8154815290600101906020018083116103c957829003601f168201915b505050505081526020016001820160009054906101000a900473ffffffffffffffffffffffffffffffffffffffff1673ffffffffffffffffffffffffffffffffffffffff1673ffffffffffffffffffffffffffffffffffffffff168152602001600282018054600181600116156101000203166002900480601f0160208091040260200160405190810160405280929190818152602001828054600181600116156101000203166002900480156104de5780601f106104b3576101008083540402835291602001916104de565b820191906000526020600020905b8154815290600101906020018083116104c157829003601f168201915b5050505050815260200160038201548152602001600482018054600181600116156101000203166002900480601f01602080910402602001604051908101604052809291908181526020018280546001816001161561010002031660029004801561058a5780601f1061055f5761010080835404028352916020019161058a565b820191906000526020600020905b81548152906001019060200180831161056d57829003601f168201915b50505050508152505082828151811015156105a157fe5b90602001906020020181905250808060010191505061024d565b508092505050919050565b6001826040518082805190602001908083835b6020831015156105fe57805182526020820191506020810190506020830392506105d9565b6001836020036101000a038019825116818451168082178552505050505050905001915050908152602001604051809103902060009054906101000a900460ff16151515610681576040517f08c379a000000000000000000000000000000000000000000000000000000000815260040161067890611005565b60405180910390fd5b600180836040518082805190602001908083835b6020831015156106ba5780518252602082019150602081019050602083039250610695565b6001836020036101000a038019825116818451168082178552505050505050905001915050908152602001604051809103902060006101000a81548160ff02191690831515021790555061070c610b2a565b60a0604051908101604052808681526020018573ffffffffffffffffffffffffffffffffffffffff168152602001848152602001428152602001838152509050806000846040518082805190602001908083835b6020831015156107855780518252602082019150602081019050602083039250610760565b6001836020036101000a038019825116818451168082178552505050505050905001915050908152602001604051809103902060008201518160000190805190602001906107d4929190610b70565b5060208201518160010160006101000a81548173ffffffffffffffffffffffffffffffffffffffff021916908373ffffffffffffffffffffffffffffffffffffffff1602179055506040820151816002019080519060200190610838929190610b70565b5060608201518160030155608082015181600401908051906020019061085f929190610b70565b50905050806003836040518082805190602001908083835b60208310151561089c5780518252602082019150602081019050602083039250610877565b6001836020036101000a0380198251168184511680821785525050505050509050019150509081526020016040518091039020846040518082805190602001908083835b60208310151561090557805182526020820191506020810190506020830392506108e0565b6001836020036101000a03801982511681845116808217855250505050505090500191505090815260200160405180910390206000820151816000019080519060200190610954929190610b70565b5060208201518160010160006101000a81548173ffffffffffffffffffffffffffffffffffffffff021916908373ffffffffffffffffffffffffffffffffffffffff16021790555060408201518160020190805190602001906109b8929190610b70565b506060820151816003015560808201518160040190805190602001906109df929190610b70565b509050506002826040518082805190602001908083835b602083101515610a1b57805182526020820191506020810190506020830392506109f6565b6001836020036101000a0380198251168184511680821785525050505050509050019150509081526020016040518091039020839080600181540180825580915050906001820390600052602060002001600090919290919091509080519060200190610a89929190610bf0565b50503373ffffffffffffffffffffffffffffffffffffffff167f175eee4d4f8dfad2f579d81d7006e5bf24defbcc51d00e18fddcda6c00304350848442604051610ad593929190610fc0565b60405180910390a25050505050565b60a06040519081016040528060608152602001600073ffffffffffffffffffffffffffffffffffffffff1681526020016060815260200160008152602001606081525090565b60a06040519081016040528060608152602001600073ffffffffffffffffffffffffffffffffffffffff1681526020016060815260200160008152602001606081525090565b828054600181600116156101000203166002900490600052602060002090601f016020900481019282601f10610bb157805160ff1916838001178555610bdf565b82800160010185558215610bdf579182015b82811115610bde578251825591602001919060010190610bc3565b5b509050610bec9190610c70565b5090565b828054600181600116156101000203166002900490600052602060002090601f016020900481019282601f10610c3157805160ff1916838001178555610c5f565b82800160010185558215610c5f579182015b82811115610c5e578251825591602001919060010190610c43565b5b509050610c6c9190610c70565b5090565b610c9291905b80821115610c8e576000816000905550600101610c76565b5090565b90565b6000610ca182356110f5565b905092915050565b600082601f8301121515610cbc57600080fd5b8135610ccf610cca82611052565b611025565b91508082526020830160208301858383011115610ceb57600080fd5b610cf6838284611107565b50505092915050565b600060208284031215610d1157600080fd5b600082013567ffffffffffffffff811115610d2b57600080fd5b610d3784828501610ca9565b91505092915050565b60008060008060808587031215610d5657600080fd5b600085013567ffffffffffffffff811115610d7057600080fd5b610d7c87828801610ca9565b9450506020610d8d87828801610c95565b935050604085013567ffffffffffffffff811115610daa57600080fd5b610db687828801610ca9565b925050606085013567ffffffffffffffff811115610dd357600080fd5b610ddf87828801610ca9565b91505092959194509250565b610df4816110b9565b82525050565b6000610e058261108b565b80845260208401935083602082028501610e1e8561107e565b60005b84811015610e57578383038852610e39838351610f0b565b9250610e44826110ac565b9150602088019750600181019050610e21565b508196508694505050505092915050565b6000610e73826110a1565b808452610e87816020860160208601611116565b610e9081611149565b602085010191505092915050565b6000610ea982611096565b808452610ebd816020860160208601611116565b610ec681611149565b602085010191505092915050565b6000601482527f436f75727365776f726b204944206578697374730000000000000000000000006020830152604082019050919050565b600060a0830160008301518482036000860152610f288282610e9e565b9150506020830151610f3d6020860182610deb565b5060408301518482036040860152610f558282610e9e565b9150506060830151610f6a6060860182610f8f565b5060808301518482036080860152610f828282610e9e565b9150508091505092915050565b610f98816110eb565b82525050565b60006020820190508181036000830152610fb88184610dfa565b905092915050565b60006060820190508181036000830152610fda8186610e68565b90508181036020830152610fee8185610e68565b9050610ffd6040830184610f8f565b949350505050565b6000602082019050818103600083015261101e81610ed4565b9050919050565b6000604051905081810181811067ffffffffffffffff8211171561104857600080fd5b8060405250919050565b600067ffffffffffffffff82111561106957600080fd5b601f19601f8301169050602081019050919050565b6000602082019050919050565b600081519050919050565b600081519050919050565b600081519050919050565b6000602082019050919050565b60006110c4826110cb565b9050919050565b600073ffffffffffffffffffffffffffffffffffffffff82169050919050565b6000819050919050565b6000611100826110cb565b9050919050565b82818337600083830152505050565b60005b83811015611134578082015181840152602081019050611119565b83811115611143576000848401525b50505050565b6000601f19601f830116905091905056fea265627a7a72305820f4cf10953347a935354f4ace909465d972903b96a0ec3123abc8b9f43728ea7c6c6578706572696d656e74616cf50037",
  "source": "pragma solidity 0.5.0;\r\npragma experimental ABIEncoderV2;\r\n\r\ncontract CourseWork {\r\n    struct Coursework {\r\n        string courseWorkName;\r\n        address moduleLeaderAddress;\r\n        string courseworkId;\r\n        uint256 timestamp;\r\n        string courseName;\r\n    }\r\n\r\n    mapping(string => Coursework) private work;\r\n    mapping(string => bool) private courseWorkId;\r\n    mapping(string => string[]) private courseWorkKeys;\r\n    mapping(string => mapping(string => Coursework)) private courseWorkList;\r\n\r\n    function submitCoursework(\r\n        string memory _courseWorkName,\r\n        address _moduleLeaderAddress,\r\n        string memory _courseworkId,\r\n        string memory _courseName\r\n    ) public {\r\n        require(!courseWorkId[_courseworkId], \"Coursework ID exists\");\r\n        courseWorkId[_courseworkId] = true;\r\n\r\n        Coursework memory newCoursework = Coursework({\r\n            courseWorkName: _courseWorkName,\r\n            moduleLeaderAddress: _moduleLeaderAddress,\r\n            courseworkId: _courseworkId,\r\n            timestamp: block.timestamp,\r\n            courseName: _courseName\r\n        });\r\n\r\n        work[_courseworkId] = newCoursework;\r\n        courseWorkList[_courseName][_courseworkId] = newCoursework;\r\n        courseWorkKeys[_courseName].push(_courseworkId);\r\n\r\n        emit DocumentSubmitted(msg.sender, _courseworkId, _courseName, block.timestamp);\r\n    }\r\n\r\n    function getCourseworkList(string memory _courseName) public view returns (Coursework[] memory) {\r\n        string[] memory keys = courseWorkKeys[_courseName];\r\n        Coursework[] memory courseworkArray = new Coursework[](keys.length);\r\n\r\n        for (uint256 i = 0; i < keys.length; i++) {\r\n            courseworkArray[i] = courseWorkList[_courseName][keys[i]];\r\n        }\r\n\r\n        return courseworkArray;\r\n    }\r\n\r\n    event DocumentSubmitted(\r\n        address indexed sender,\r\n        string courseworkId,\r\n        string courseName,\r\n        uint256 timestamp\r\n    );\r\n}",
  "sourcePath": "C:/Users/HP/project/src/contracts/CourseWork.sol",
  "compiler": {
    "name": "solc",
    "version": "0.5.0+commit.1d4f565a.Emscripten.clang"
  },
  "schemaVersion": "3.0.2",
  "updatedAt": "2023-08-22T15:47:26.919Z",
  "devdoc": {
    "methods": {}
  },
  "userdoc": {
    "methods": {}
  }
}