{
  "contractName": "CourseWork",
  "abi": [
    {
      "anonymous": false,
      "inputs": [
        {
          "indexed": true,
          "name": "sender",
          "type": "address"
        },
        {
          "indexed": false,
          "name": "courseworkId",
          "type": "string"
        },
        {
          "indexed": false,
          "name": "courseName",
          "type": "string"
        },
        {
          "indexed": false,
          "name": "timestamp",
          "type": "uint256"
        }
      ],
      "name": "DocumentSubmitted",
      "type": "event",
      "signature": "0x175eee4d4f8dfad2f579d81d7006e5bf24defbcc51d00e18fddcda6c00304350"
    },
    {
      "constant": false,
      "inputs": [
        {
          "name": "_courseWorkName",
          "type": "string"
        },
        {
          "name": "_moduleLeaderAddress",
          "type": "address"
        },
        {
          "name": "_courseworkId",
          "type": "string"
        },
        {
          "name": "_courseName",
          "type": "string"
        }
      ],
      "name": "submitCoursework",
      "outputs": [],
      "payable": false,
      "stateMutability": "nonpayable",
      "type": "function",
      "signature": "0x758d9f4f"
    },
    {
      "constant": true,
      "inputs": [
        {
          "name": "_courseName",
          "type": "string"
        }
      ],
      "name": "getCourseworkList",
      "outputs": [
        {
          "components": [
            {
              "name": "courseWorkName",
              "type": "string"
            },
            {
              "name": "moduleLeaderAddress",
              "type": "address"
            },
            {
              "name": "courseworkId",
              "type": "string"
            },
            {
              "name": "timestamp",
              "type": "uint256"
            },
            {
              "name": "courseName",
              "type": "string"
            }
          ],
          "name": "",
          "type": "tuple[]"
        }
      ],
      "payable": false,
      "stateMutability": "view",
      "type": "function",
      "signature": "0x0a6e84ae"
    },
    {
      "constant": true,
      "inputs": [
        {
          "name": "_moduleLeaderAddress",
          "type": "address"
        }
      ],
      "name": "getModCourseWork",
      "outputs": [
        {
          "name": "",
          "type": "string[]"
        }
      ],
      "payable": false,
      "stateMutability": "view",
      "type": "function",
      "signature": "0xa300531b"
    }
  ],
  "bytecode": "0x608060405234801561001057600080fd5b50611463806100206000396000f3fe608060405260043610610057576000357c0100000000000000000000000000000000000000000000000000000000900463ffffffff1680630a6e84ae1461005c578063758d9f4f14610099578063a300531b146100c2575b600080fd5b34801561006857600080fd5b50610083600480360361007e9190810190610f19565b6100ff565b6040516100909190611248565b60405180910390f35b3480156100a557600080fd5b506100c060048036036100bb9190810190610f5a565b61060e565b005b3480156100ce57600080fd5b506100e960048036036100e49190810190610ef0565b610ba8565b6040516100f69190611226565b60405180910390f35b6060806002836040518082805190602001908083835b60208310151561013a5780518252602082019150602081019050602083039250610115565b6001836020036101000a0380198251168184511680821785525050505050509050019150509081526020016040518091039020805480602002602001604051908101604052809291908181526020016000905b82821015610249578382906000526020600020018054600181600116156101000203166002900480601f0160208091040260200160405190810160405280929190818152602001828054600181600116156101000203166002900480156102355780601f1061020a57610100808354040283529160200191610235565b820191906000526020600020905b81548152906001019060200180831161021857829003601f168201915b50505050508152602001906001019061018d565b5050505090506060815160405190808252806020026020018201604052801561028c57816020015b610279610cd5565b8152602001906001900390816102715790505b50905060008090505b8251811015610603576003856040518082805190602001908083835b6020831015156102d657805182526020820191506020810190506020830392506102b1565b6001836020036101000a0380198251168184511680821785525050505050509050019150509081526020016040518091039020838281518110151561031757fe5b906020019060200201516040518082805190602001908083835b6020831015156103565780518252602082019150602081019050602083039250610331565b6001836020036101000a038019825116818451168082178552505050505050905001915050908152602001604051809103902060a06040519081016040529081600082018054600181600116156101000203166002900480601f01602080910402602001604051908101604052809291908181526020018280546001816001161561010002031660029004801561042e5780601f106104035761010080835404028352916020019161042e565b820191906000526020600020905b81548152906001019060200180831161041157829003601f168201915b505050505081526020016001820160009054906101000a900473ffffffffffffffffffffffffffffffffffffffff1673ffffffffffffffffffffffffffffffffffffffff1673ffffffffffffffffffffffffffffffffffffffff168152602001600282018054600181600116156101000203166002900480601f0160208091040260200160405190810160405280929190818152602001828054600181600116156101000203166002900480156105265780601f106104fb57610100808354040283529160200191610526565b820191906000526020600020905b81548152906001019060200180831161050957829003601f168201915b5050505050815260200160038201548152602001600482018054600181600116156101000203166002900480601f0160208091040260200160405190810160405280929190818152602001828054600181600116156101000203166002900480156105d25780601f106105a7576101008083540402835291602001916105d2565b820191906000526020600020905b8154815290600101906020018083116105b557829003601f168201915b50505050508152505082828151811015156105e957fe5b906020019060200201819052508080600101915050610295565b508092505050919050565b6001826040518082805190602001908083835b6020831015156106465780518252602082019150602081019050602083039250610621565b6001836020036101000a038019825116818451168082178552505050505050905001915050908152602001604051809103902060009054906101000a900460ff161515156106c9576040517f08c379a00000000000000000000000000000000000000000000000000000000081526004016106c0906112af565b60405180910390fd5b600180836040518082805190602001908083835b60208310151561070257805182526020820191506020810190506020830392506106dd565b6001836020036101000a038019825116818451168082178552505050505050905001915050908152602001604051809103902060006101000a81548160ff021916908315150217905550610754610d1b565b60a0604051908101604052808681526020018573ffffffffffffffffffffffffffffffffffffffff168152602001848152602001428152602001838152509050806000846040518082805190602001908083835b6020831015156107cd57805182526020820191506020810190506020830392506107a8565b6001836020036101000a0380198251168184511680821785525050505050509050019150509081526020016040518091039020600082015181600001908051906020019061081c929190610d61565b5060208201518160010160006101000a81548173ffffffffffffffffffffffffffffffffffffffff021916908373ffffffffffffffffffffffffffffffffffffffff1602179055506040820151816002019080519060200190610880929190610d61565b506060820151816003015560808201518160040190805190602001906108a7929190610d61565b50905050806003836040518082805190602001908083835b6020831015156108e457805182526020820191506020810190506020830392506108bf565b6001836020036101000a0380198251168184511680821785525050505050509050019150509081526020016040518091039020846040518082805190602001908083835b60208310151561094d5780518252602082019150602081019050602083039250610928565b6001836020036101000a0380198251168184511680821785525050505050509050019150509081526020016040518091039020600082015181600001908051906020019061099c929190610d61565b5060208201518160010160006101000a81548173ffffffffffffffffffffffffffffffffffffffff021916908373ffffffffffffffffffffffffffffffffffffffff1602179055506040820151816002019080519060200190610a00929190610d61565b50606082015181600301556080820151816004019080519060200190610a27929190610d61565b509050506002826040518082805190602001908083835b602083101515610a635780518252602082019150602081019050602083039250610a3e565b6001836020036101000a0380198251168184511680821785525050505050509050019150509081526020016040518091039020839080600181540180825580915050906001820390600052602060002001600090919290919091509080519060200190610ad1929190610de1565b5050600460008573ffffffffffffffffffffffffffffffffffffffff1673ffffffffffffffffffffffffffffffffffffffff168152602001908152602001600020839080600181540180825580915050906001820390600052602060002001600090919290919091509080519060200190610b4d929190610de1565b50503373ffffffffffffffffffffffffffffffffffffffff167f175eee4d4f8dfad2f579d81d7006e5bf24defbcc51d00e18fddcda6c00304350848442604051610b999392919061126a565b60405180910390a25050505050565b606080600460008473ffffffffffffffffffffffffffffffffffffffff1673ffffffffffffffffffffffffffffffffffffffff168152602001908152602001600020805480602002602001604051908101604052809291908181526020016000905b82821015610cc6578382906000526020600020018054600181600116156101000203166002900480601f016020809104026020016040519081016040528092919081815260200182805460018160011615610100020316600290048015610cb25780601f10610c8757610100808354040283529160200191610cb2565b820191906000526020600020905b815481529060010190602001808311610c9557829003601f168201915b505050505081526020019060010190610c0a565b50505050905080915050919050565b60a06040519081016040528060608152602001600073ffffffffffffffffffffffffffffffffffffffff1681526020016060815260200160008152602001606081525090565b60a06040519081016040528060608152602001600073ffffffffffffffffffffffffffffffffffffffff1681526020016060815260200160008152602001606081525090565b828054600181600116156101000203166002900490600052602060002090601f016020900481019282601f10610da257805160ff1916838001178555610dd0565b82800160010185558215610dd0579182015b82811115610dcf578251825591602001919060010190610db4565b5b509050610ddd9190610e61565b5090565b828054600181600116156101000203166002900490600052602060002090601f016020900481019282601f10610e2257805160ff1916838001178555610e50565b82800160010185558215610e50579182015b82811115610e4f578251825591602001919060010190610e34565b5b509050610e5d9190610e61565b5090565b610e8391905b80821115610e7f576000816000905550600101610e67565b5090565b90565b6000610e9282356113c4565b905092915050565b600082601f8301121515610ead57600080fd5b8135610ec0610ebb826112fc565b6112cf565b91508082526020830160208301858383011115610edc57600080fd5b610ee78382846113d6565b50505092915050565b600060208284031215610f0257600080fd5b6000610f1084828501610e86565b91505092915050565b600060208284031215610f2b57600080fd5b600082013567ffffffffffffffff811115610f4557600080fd5b610f5184828501610e9a565b91505092915050565b60008060008060808587031215610f7057600080fd5b600085013567ffffffffffffffff811115610f8a57600080fd5b610f9687828801610e9a565b9450506020610fa787828801610e86565b935050604085013567ffffffffffffffff811115610fc457600080fd5b610fd087828801610e9a565b925050606085013567ffffffffffffffff811115610fed57600080fd5b610ff987828801610e9a565b91505092959194509250565b61100e81611388565b82525050565b600061101f82611342565b8084526020840193508360208202850161103885611328565b60005b84811015611071578383038852611053838351611126565b925061105e8261136e565b915060208801975060018101905061103b565b508196508694505050505092915050565b600061108d8261134d565b808452602084019350836020820285016110a685611335565b60005b848110156110df5783830388526110c1838351611193565b92506110cc8261137b565b91506020880197506001810190506110a9565b508196508694505050505092915050565b60006110fb82611363565b80845261110f8160208601602086016113e5565b61111881611418565b602085010191505092915050565b600061113182611358565b8084526111458160208601602086016113e5565b61114e81611418565b602085010191505092915050565b6000601482527f436f75727365776f726b204944206578697374730000000000000000000000006020830152604082019050919050565b600060a08301600083015184820360008601526111b08282611126565b91505060208301516111c56020860182611005565b50604083015184820360408601526111dd8282611126565b91505060608301516111f26060860182611217565b506080830151848203608086015261120a8282611126565b9150508091505092915050565b611220816113ba565b82525050565b600060208201905081810360008301526112408184611014565b905092915050565b600060208201905081810360008301526112628184611082565b905092915050565b6000606082019050818103600083015261128481866110f0565b9050818103602083015261129881856110f0565b90506112a76040830184611217565b949350505050565b600060208201905081810360008301526112c88161115c565b9050919050565b6000604051905081810181811067ffffffffffffffff821117156112f257600080fd5b8060405250919050565b600067ffffffffffffffff82111561131357600080fd5b601f19601f8301169050602081019050919050565b6000602082019050919050565b6000602082019050919050565b600081519050919050565b600081519050919050565b600081519050919050565b600081519050919050565b6000602082019050919050565b6000602082019050919050565b60006113938261139a565b9050919050565b600073ffffffffffffffffffffffffffffffffffffffff82169050919050565b6000819050919050565b60006113cf8261139a565b9050919050565b82818337600083830152505050565b60005b838110156114035780820151818401526020810190506113e8565b83811115611412576000848401525b50505050565b6000601f19601f830116905091905056fea265627a7a72305820586fe13dbef903b30e984d7cfa80ed6b65883705ebc3c55b3256e8aa17fe93d16c6578706572696d656e74616cf50037",
  "source": "pragma solidity 0.5.0;\r\npragma experimental ABIEncoderV2;\r\n\r\ncontract CourseWork {\r\n    struct Coursework {\r\n        string courseWorkName;\r\n        address moduleLeaderAddress;\r\n        string courseworkId;\r\n        uint256 timestamp;\r\n        string courseName;\r\n    }\r\n\r\n    mapping(string => Coursework) private work;\r\n    mapping(string => bool) private courseWorkId;\r\n    mapping(string => string[]) private courseWorkKeys;\r\n    mapping(string => mapping(string => Coursework)) private courseWorkList;\r\n    mapping(address => string[]) private modCourseWork;\r\n    function submitCoursework(\r\n        string memory _courseWorkName,\r\n        address _moduleLeaderAddress,\r\n        string memory _courseworkId,\r\n        string memory _courseName\r\n    ) public {\r\n        require(!courseWorkId[_courseworkId], \"Coursework ID exists\");\r\n        courseWorkId[_courseworkId] = true;\r\n\r\n        Coursework memory newCoursework = Coursework({\r\n            courseWorkName: _courseWorkName,\r\n            moduleLeaderAddress: _moduleLeaderAddress,\r\n            courseworkId: _courseworkId,\r\n            timestamp: block.timestamp,\r\n            courseName: _courseName\r\n        });\r\n\r\n        work[_courseworkId] = newCoursework;\r\n        courseWorkList[_courseName][_courseworkId] = newCoursework;\r\n        courseWorkKeys[_courseName].push(_courseworkId);\r\n        modCourseWork[_moduleLeaderAddress].push(_courseworkId);\r\n       \r\n        emit DocumentSubmitted(msg.sender, _courseworkId, _courseName, block.timestamp);\r\n    }\r\n\r\n    function getCourseworkList(string memory _courseName) public view returns (Coursework[] memory) {\r\n        string[] memory keys = courseWorkKeys[_courseName];\r\n        Coursework[] memory courseworkArray = new Coursework[](keys.length);\r\n\r\n        for (uint256 i = 0; i < keys.length; i++) {\r\n            courseworkArray[i] = courseWorkList[_courseName][keys[i]];\r\n        }\r\n\r\n        return courseworkArray;\r\n    }\r\n     \r\n  function getModCourseWork(address _moduleLeaderAddress) public view returns (string[] memory) {\r\n   string[] memory courseworkIds = modCourseWork[_moduleLeaderAddress];\r\n   return courseworkIds;\r\n   }\r\n\r\n    event DocumentSubmitted(\r\n        address indexed sender,\r\n        string courseworkId,\r\n        string courseName,\r\n        uint256 timestamp\r\n    );\r\n}",
  "sourcePath": "C:/Users/HP/project/src/contracts/CourseWork.sol",
  "compiler": {
    "name": "solc",
    "version": "0.5.0+commit.1d4f565a.Emscripten.clang"
  },
  "schemaVersion": "3.0.2",
  "updatedAt": "2023-08-28T00:13:33.759Z",
  "devdoc": {
    "methods": {}
  },
  "userdoc": {
    "methods": {}
  }
}