{
  "contractName": "Iprm",
  "abi": [
    {
      "constant": true,
      "inputs": [
        {
          "name": "",
          "type": "bytes32"
        }
      ],
      "name": "submissions",
      "outputs": [
        {
          "name": "ipfsHash",
          "type": "string"
        },
        {
          "name": "userAddress",
          "type": "address"
        },
        {
          "name": "moduleLeaderAddress",
          "type": "address"
        },
        {
          "name": "timestamp",
          "type": "uint256"
        },
        {
          "name": "courseId",
          "type": "string"
        }
      ],
      "payable": false,
      "stateMutability": "view",
      "type": "function",
      "signature": "0xc5c9c0a2"
    },
    {
      "anonymous": false,
      "inputs": [
        {
          "indexed": true,
          "name": "sender",
          "type": "address"
        },
        {
          "indexed": false,
          "name": "ipfsHash",
          "type": "string"
        },
        {
          "indexed": false,
          "name": "courseId",
          "type": "string"
        },
        {
          "indexed": false,
          "name": "timestamp",
          "type": "uint256"
        }
      ],
      "name": "DocumentSubmitted",
      "type": "event",
      "signature": "0x175eee4d4f8dfad2f579d81d7006e5bf24defbcc51d00e18fddcda6c00304350"
    },
    {
      "constant": false,
      "inputs": [
        {
          "name": "_ipfsHash",
          "type": "string"
        },
        {
          "name": "_courseId",
          "type": "string"
        },
        {
          "name": "_module_leader",
          "type": "address"
        }
      ],
      "name": "submit",
      "outputs": [],
      "payable": false,
      "stateMutability": "nonpayable",
      "type": "function",
      "signature": "0x6034204e"
    },
    {
      "constant": true,
      "inputs": [],
      "name": "getUserSubmissions",
      "outputs": [
        {
          "name": "",
          "type": "string[]"
        }
      ],
      "payable": false,
      "stateMutability": "view",
      "type": "function",
      "signature": "0xf3344e8a"
    }
  ],
  "bytecode": "0x608060405234801561001057600080fd5b50610b5b806100206000396000f3fe608060405260043610610057576000357c0100000000000000000000000000000000000000000000000000000000900463ffffffff1680636034204e1461005c578063c5c9c0a214610085578063f3344e8a146100c6575b600080fd5b34801561006857600080fd5b50610083600480360361007e91908101906107a3565b6100f1565b005b34801561009157600080fd5b506100ac60048036036100a7919081019061077a565b61030c565b6040516100bd959493929190610981565b60405180910390f35b3480156100d257600080fd5b506100db6104b2565b6040516100e8919061091a565b60405180910390f35b60008380519060200120905060a0604051908101604052808581526020013373ffffffffffffffffffffffffffffffffffffffff1681526020018373ffffffffffffffffffffffffffffffffffffffff168152602001428152602001848152506001600083815260200190815260200160002060008201518160000190805190602001906101809291906105d7565b5060208201518160010160006101000a81548173ffffffffffffffffffffffffffffffffffffffff021916908373ffffffffffffffffffffffffffffffffffffffff16021790555060408201518160020160006101000a81548173ffffffffffffffffffffffffffffffffffffffff021916908373ffffffffffffffffffffffffffffffffffffffff1602179055506060820151816003015560808201518160040190805190602001906102359291906105d7565b509050506000803373ffffffffffffffffffffffffffffffffffffffff1673ffffffffffffffffffffffffffffffffffffffff1681526020019081526020016000208490806001815401808255809150509060018203906000526020600020016000909192909190915090805190602001906102b2929190610657565b50503373ffffffffffffffffffffffffffffffffffffffff167f175eee4d4f8dfad2f579d81d7006e5bf24defbcc51d00e18fddcda6c003043508585426040516102fe9392919061093c565b60405180910390a250505050565b6001602052806000526040600020600091509050806000018054600181600116156101000203166002900480601f0160208091040260200160405190810160405280929190818152602001828054600181600116156101000203166002900480156103b85780601f1061038d576101008083540402835291602001916103b8565b820191906000526020600020905b81548152906001019060200180831161039b57829003601f168201915b5050505050908060010160009054906101000a900473ffffffffffffffffffffffffffffffffffffffff16908060020160009054906101000a900473ffffffffffffffffffffffffffffffffffffffff1690806003015490806004018054600181600116156101000203166002900480601f0160208091040260200160405190810160405280929190818152602001828054600181600116156101000203166002900480156104a85780601f1061047d576101008083540402835291602001916104a8565b820191906000526020600020905b81548152906001019060200180831161048b57829003601f168201915b5050505050905085565b60606000803373ffffffffffffffffffffffffffffffffffffffff1673ffffffffffffffffffffffffffffffffffffffff168152602001908152602001600020805480602002602001604051908101604052809291908181526020016000905b828210156105ce578382906000526020600020018054600181600116156101000203166002900480601f0160208091040260200160405190810160405280929190818152602001828054600181600116156101000203166002900480156105ba5780601f1061058f576101008083540402835291602001916105ba565b820191906000526020600020905b81548152906001019060200180831161059d57829003601f168201915b505050505081526020019060010190610512565b50505050905090565b828054600181600116156101000203166002900490600052602060002090601f016020900481019282601f1061061857805160ff1916838001178555610646565b82800160010185558215610646579182015b8281111561064557825182559160200191906001019061062a565b5b50905061065391906106d7565b5090565b828054600181600116156101000203166002900490600052602060002090601f016020900481019282601f1061069857805160ff19168380011785556106c6565b828001600101855582156106c6579182015b828111156106c55782518255916020019190600101906106aa565b5b5090506106d391906106d7565b5090565b6106f991905b808211156106f55760008160009055506001016106dd565b5090565b90565b60006107088235610ab2565b905092915050565b600061071c8235610ac4565b905092915050565b600082601f830112151561073757600080fd5b813561074a61074582610a0f565b6109e2565b9150808252602083016020830185838301111561076657600080fd5b610771838284610ace565b50505092915050565b60006020828403121561078c57600080fd5b600061079a84828501610710565b91505092915050565b6000806000606084860312156107b857600080fd5b600084013567ffffffffffffffff8111156107d257600080fd5b6107de86828701610724565b935050602084013567ffffffffffffffff8111156107fb57600080fd5b61080786828701610724565b9250506040610818868287016106fc565b9150509250925092565b61082b81610a76565b82525050565b600061083c82610a48565b8084526020840193508360208202850161085585610a3b565b60005b8481101561088e5783830388526108708383516108d5565b925061087b82610a69565b9150602088019750600181019050610858565b508196508694505050505092915050565b60006108aa82610a5e565b8084526108be816020860160208601610add565b6108c781610b10565b602085010191505092915050565b60006108e082610a53565b8084526108f4816020860160208601610add565b6108fd81610b10565b602085010191505092915050565b61091481610aa8565b82525050565b600060208201905081810360008301526109348184610831565b905092915050565b60006060820190508181036000830152610956818661089f565b9050818103602083015261096a818561089f565b9050610979604083018461090b565b949350505050565b600060a082019050818103600083015261099b81886108d5565b90506109aa6020830187610822565b6109b76040830186610822565b6109c4606083018561090b565b81810360808301526109d681846108d5565b90509695505050505050565b6000604051905081810181811067ffffffffffffffff82111715610a0557600080fd5b8060405250919050565b600067ffffffffffffffff821115610a2657600080fd5b601f19601f8301169050602081019050919050565b6000602082019050919050565b600081519050919050565b600081519050919050565b600081519050919050565b6000602082019050919050565b6000610a8182610a88565b9050919050565b600073ffffffffffffffffffffffffffffffffffffffff82169050919050565b6000819050919050565b6000610abd82610a88565b9050919050565b6000819050919050565b82818337600083830152505050565b60005b83811015610afb578082015181840152602081019050610ae0565b83811115610b0a576000848401525b50505050565b6000601f19601f830116905091905056fea265627a7a7230582097c458c5d13e8d369d2daf3e5591cbaa30a8fd3b81e67802979d8cf6cae752316c6578706572696d656e74616cf50037",
  "source": "pragma solidity 0.5.0;\r\npragma experimental ABIEncoderV2;\r\n\r\ncontract Iprm{\r\n\t//smart contract goes here\r\n\t struct Work {\r\n        string ipfsHash;\r\n        address userAddress;\r\n        address moduleLeaderAddress;\r\n        uint256 timestamp;\r\n        string courseId;\r\n    }\r\n\t \r\n\r\n     mapping(address => string[]) private userSubmissions;\r\n       \r\n\t  mapping(bytes32 => Work) public submissions;\r\n\r\n function submit(string memory _ipfsHash, string memory _courseId, address _module_leader) public {\r\n        bytes32 hash = keccak256(bytes(_ipfsHash)); // Convert string to bytes32 hash\r\n\r\n        submissions[hash] = Work({\r\n            ipfsHash: _ipfsHash,\r\n            userAddress: msg.sender,\r\n            moduleLeaderAddress: _module_leader,\r\n            timestamp: block.timestamp,\r\n            courseId: _courseId\r\n        });\r\n        userSubmissions[msg.sender].push(_ipfsHash);\r\n        // Emit an event for the submission\r\n        emit DocumentSubmitted(msg.sender, _ipfsHash, _courseId, block.timestamp);\r\n    }\r\n     function getUserSubmissions() public view returns (string[] memory) {\r\n        return userSubmissions[msg.sender]; // Retrieve all submission hashes for the calling user\r\n    }\r\n\r\n    event DocumentSubmitted(address indexed sender, string ipfsHash, string courseId, uint256 timestamp);\r\n\r\n}\r\n",
  "sourcePath": "C:/Users/HP/project/src/contracts/Iprm.sol",
  "compiler": {
    "name": "solc",
    "version": "0.5.0+commit.1d4f565a.Emscripten.clang"
  },
  "schemaVersion": "3.0.2",
  "updatedAt": "2023-08-22T15:47:26.917Z",
  "devdoc": {
    "methods": {}
  },
  "userdoc": {
    "methods": {}
  }
}