{
  "contractName": "Iprm",
  "abi": [
    {
      "constant": true,
      "inputs": [
        {
          "name": "",
          "type": "bytes32"
        }
      ],
      "name": "submissions",
      "outputs": [
        {
          "name": "ipfsHash",
          "type": "string"
        },
        {
          "name": "userAddress",
          "type": "address"
        },
        {
          "name": "moduleLeaderAddress",
          "type": "address"
        },
        {
          "name": "timestamp",
          "type": "uint256"
        },
        {
          "name": "courseId",
          "type": "string"
        }
      ],
      "payable": false,
      "stateMutability": "view",
      "type": "function",
      "signature": "0xc5c9c0a2"
    },
    {
      "anonymous": false,
      "inputs": [
        {
          "indexed": true,
          "name": "sender",
          "type": "address"
        },
        {
          "indexed": false,
          "name": "ipfsHash",
          "type": "string"
        },
        {
          "indexed": false,
          "name": "courseId",
          "type": "string"
        },
        {
          "indexed": false,
          "name": "timestamp",
          "type": "uint256"
        }
      ],
      "name": "DocumentSubmitted",
      "type": "event",
      "signature": "0x175eee4d4f8dfad2f579d81d7006e5bf24defbcc51d00e18fddcda6c00304350"
    },
    {
      "constant": false,
      "inputs": [
        {
          "name": "_ipfsHash",
          "type": "string"
        },
        {
          "name": "_courseId",
          "type": "string"
        },
        {
          "name": "_module_leader",
          "type": "address"
        }
      ],
      "name": "submit",
      "outputs": [],
      "payable": false,
      "stateMutability": "nonpayable",
      "type": "function",
      "signature": "0x6034204e"
    },
    {
      "constant": true,
      "inputs": [],
      "name": "getUserSubmissions",
      "outputs": [
        {
          "name": "",
          "type": "string[]"
        }
      ],
      "payable": false,
      "stateMutability": "view",
      "type": "function",
      "signature": "0xf3344e8a"
    },
    {
      "constant": true,
      "inputs": [
        {
          "name": "courseId",
          "type": "string"
        }
      ],
      "name": "courseSubmissions",
      "outputs": [
        {
          "name": "",
          "type": "string[]"
        }
      ],
      "payable": false,
      "stateMutability": "view",
      "type": "function",
      "signature": "0xa2b7b1df"
    },
    {
      "constant": false,
      "inputs": [
        {
          "name": "courseId",
          "type": "string"
        }
      ],
      "name": "submission",
      "outputs": [
        {
          "name": "",
          "type": "string[]"
        }
      ],
      "payable": false,
      "stateMutability": "nonpayable",
      "type": "function",
      "signature": "0xc7a2e0e5"
    }
  ],
  "bytecode": "0x608060405234801561001057600080fd5b50611203806100206000396000f3fe60806040526004361061006d576000357c0100000000000000000000000000000000000000000000000000000000900463ffffffff1680636034204e14610072578063a2b7b1df1461009b578063c5c9c0a2146100d8578063c7a2e0e514610119578063f3344e8a14610156575b600080fd5b34801561007e57600080fd5b5061009960048036036100949190810190610e4b565b610181565b005b3480156100a757600080fd5b506100c260048036036100bd9190810190610e0a565b610577565b6040516100cf9190610fc2565b60405180910390f35b3480156100e457600080fd5b506100ff60048036036100fa9190810190610de1565b6106cb565b604051610110959493929190611029565b60405180910390f35b34801561012557600080fd5b50610140600480360361013b9190810190610e0a565b610871565b60405161014d9190610fc2565b60405180910390f35b34801561016257600080fd5b5061016b610a75565b6040516101789190610fc2565b60405180910390f35b60008380519060200120905060a0604051908101604052808581526020013373ffffffffffffffffffffffffffffffffffffffff1681526020018373ffffffffffffffffffffffffffffffffffffffff16815260200142815260200184815250600260008381526020019081526020016000206000820151816000019080519060200190610210929190610c3e565b5060208201518160010160006101000a81548173ffffffffffffffffffffffffffffffffffffffff021916908373ffffffffffffffffffffffffffffffffffffffff16021790555060408201518160020160006101000a81548173ffffffffffffffffffffffffffffffffffffffff021916908373ffffffffffffffffffffffffffffffffffffffff1602179055506060820151816003015560808201518160040190805190602001906102c5929190610c3e565b509050506000803373ffffffffffffffffffffffffffffffffffffffff1673ffffffffffffffffffffffffffffffffffffffff168152602001908152602001600020849080600181540180825580915050906001820390600052602060002001600090919290919091509080519060200190610342929190610cbe565b50506001836040518082805190602001908083835b60208310151561037c5780518252602082019150602081019050602083039250610357565b6001836020036101000a03801982511681845116808217855250505050505090500191505090815260200160405180910390208490806001815401808255809150509060018203906000526020600020016000909192909190915090805190602001906103ea929190610cbe565b505083600360003373ffffffffffffffffffffffffffffffffffffffff1673ffffffffffffffffffffffffffffffffffffffff168152602001908152602001600020846040518082805190602001908083835b602083101515610462578051825260208201915060208101905060208303925061043d565b6001836020036101000a038019825116818451168082178552505050505050905001915050908152602001604051809103902090805190602001906104a8929190610cbe565b506104b233610b9a565b151561051f5760043390806001815401808255809150509060018203906000526020600020016000909192909190916101000a81548173ffffffffffffffffffffffffffffffffffffffff021916908373ffffffffffffffffffffffffffffffffffffffff160217905550505b3373ffffffffffffffffffffffffffffffffffffffff167f175eee4d4f8dfad2f579d81d7006e5bf24defbcc51d00e18fddcda6c0030435085854260405161056993929190610fe4565b60405180910390a250505050565b60606001826040518082805190602001908083835b6020831015156105b1578051825260208201915060208101905060208303925061058c565b6001836020036101000a0380198251168184511680821785525050505050509050019150509081526020016040518091039020805480602002602001604051908101604052809291908181526020016000905b828210156106c0578382906000526020600020018054600181600116156101000203166002900480601f0160208091040260200160405190810160405280929190818152602001828054600181600116156101000203166002900480156106ac5780601f10610681576101008083540402835291602001916106ac565b820191906000526020600020905b81548152906001019060200180831161068f57829003601f168201915b505050505081526020019060010190610604565b505050509050919050565b6002602052806000526040600020600091509050806000018054600181600116156101000203166002900480601f0160208091040260200160405190810160405280929190818152602001828054600181600116156101000203166002900480156107775780601f1061074c57610100808354040283529160200191610777565b820191906000526020600020905b81548152906001019060200180831161075a57829003601f168201915b5050505050908060010160009054906101000a900473ffffffffffffffffffffffffffffffffffffffff16908060020160009054906101000a900473ffffffffffffffffffffffffffffffffffffffff1690806003015490806004018054600181600116156101000203166002900480601f0160208091040260200160405190810160405280929190818152602001828054600181600116156101000203166002900480156108675780601f1061083c57610100808354040283529160200191610867565b820191906000526020600020905b81548152906001019060200180831161084a57829003601f168201915b5050505050905085565b6060806004805490506040519080825280602002602001820160405280156108ad57816020015b60608152602001906001900390816108985790505b50905060008090505b600480549050811015610a6b5760006004828154811015156108d457fe5b9060005260206000200160009054906101000a900473ffffffffffffffffffffffffffffffffffffffff169050600360008273ffffffffffffffffffffffffffffffffffffffff1673ffffffffffffffffffffffffffffffffffffffff168152602001908152602001600020856040518082805190602001908083835b6020831015156109765780518252602082019150602081019050602083039250610951565b6001836020036101000a03801982511681845116808217855250505050505090500191505090815260200160405180910390208054600181600116156101000203166002900480601f016020809104026020016040519081016040528092919081815260200182805460018160011615610100020316600290048015610a3d5780601f10610a1257610100808354040283529160200191610a3d565b820191906000526020600020905b815481529060010190602001808311610a2057829003601f168201915b50505050508383815181101515610a5057fe5b906020019060200201819052505080806001019150506108b6565b5080915050919050565b60606000803373ffffffffffffffffffffffffffffffffffffffff1673ffffffffffffffffffffffffffffffffffffffff168152602001908152602001600020805480602002602001604051908101604052809291908181526020016000905b82821015610b91578382906000526020600020018054600181600116156101000203166002900480601f016020809104026020016040519081016040528092919081815260200182805460018160011615610100020316600290048015610b7d5780601f10610b5257610100808354040283529160200191610b7d565b820191906000526020600020905b815481529060010190602001808311610b6057829003601f168201915b505050505081526020019060010190610ad5565b50505050905090565b600080600090505b600480549050811015610c33578273ffffffffffffffffffffffffffffffffffffffff16600482815481101515610bd557fe5b9060005260206000200160009054906101000a900473ffffffffffffffffffffffffffffffffffffffff1673ffffffffffffffffffffffffffffffffffffffff161415610c26576001915050610c39565b8080600101915050610ba2565b50600090505b919050565b828054600181600116156101000203166002900490600052602060002090601f016020900481019282601f10610c7f57805160ff1916838001178555610cad565b82800160010185558215610cad579182015b82811115610cac578251825591602001919060010190610c91565b5b509050610cba9190610d3e565b5090565b828054600181600116156101000203166002900490600052602060002090601f016020900481019282601f10610cff57805160ff1916838001178555610d2d565b82800160010185558215610d2d579182015b82811115610d2c578251825591602001919060010190610d11565b5b509050610d3a9190610d3e565b5090565b610d6091905b80821115610d5c576000816000905550600101610d44565b5090565b90565b6000610d6f823561115a565b905092915050565b6000610d83823561116c565b905092915050565b600082601f8301121515610d9e57600080fd5b8135610db1610dac826110b7565b61108a565b91508082526020830160208301858383011115610dcd57600080fd5b610dd8838284611176565b50505092915050565b600060208284031215610df357600080fd5b6000610e0184828501610d77565b91505092915050565b600060208284031215610e1c57600080fd5b600082013567ffffffffffffffff811115610e3657600080fd5b610e4284828501610d8b565b91505092915050565b600080600060608486031215610e6057600080fd5b600084013567ffffffffffffffff811115610e7a57600080fd5b610e8686828701610d8b565b935050602084013567ffffffffffffffff811115610ea357600080fd5b610eaf86828701610d8b565b9250506040610ec086828701610d63565b9150509250925092565b610ed38161111e565b82525050565b6000610ee4826110f0565b80845260208401935083602082028501610efd856110e3565b60005b84811015610f36578383038852610f18838351610f7d565b9250610f2382611111565b9150602088019750600181019050610f00565b508196508694505050505092915050565b6000610f5282611106565b808452610f66816020860160208601611185565b610f6f816111b8565b602085010191505092915050565b6000610f88826110fb565b808452610f9c816020860160208601611185565b610fa5816111b8565b602085010191505092915050565b610fbc81611150565b82525050565b60006020820190508181036000830152610fdc8184610ed9565b905092915050565b60006060820190508181036000830152610ffe8186610f47565b905081810360208301526110128185610f47565b90506110216040830184610fb3565b949350505050565b600060a08201905081810360008301526110438188610f7d565b90506110526020830187610eca565b61105f6040830186610eca565b61106c6060830185610fb3565b818103608083015261107e8184610f7d565b90509695505050505050565b6000604051905081810181811067ffffffffffffffff821117156110ad57600080fd5b8060405250919050565b600067ffffffffffffffff8211156110ce57600080fd5b601f19601f8301169050602081019050919050565b6000602082019050919050565b600081519050919050565b600081519050919050565b600081519050919050565b6000602082019050919050565b600061112982611130565b9050919050565b600073ffffffffffffffffffffffffffffffffffffffff82169050919050565b6000819050919050565b600061116582611130565b9050919050565b6000819050919050565b82818337600083830152505050565b60005b838110156111a3578082015181840152602081019050611188565b838111156111b2576000848401525b50505050565b6000601f19601f830116905091905056fea265627a7a72305820879ab9618db889ed3faaec68d86e0aa7e264e4ede174d923678516ff335b13b16c6578706572696d656e74616cf50037",
  "source": "pragma solidity 0.5.0;\r\npragma experimental ABIEncoderV2;\r\n\r\ncontract Iprm{\r\n\t//smart contract goes here\r\n\t struct Work {\r\n        string ipfsHash;\r\n        address userAddress;\r\n        address moduleLeaderAddress;\r\n        uint256 timestamp;\r\n        string courseId;\r\n    }\r\n\t \r\n\r\n     mapping(address => string[]) private userSubmissions;\r\n       mapping(string=> string[]) private courseSubmission ;\r\n\t  mapping(bytes32 => Work) public submissions;\r\n\t  mapping(address=>mapping(string=>string)) private userSubmission1;\r\n\t   address[] private submittedUsers;\r\n\r\n function submit(string memory _ipfsHash, string memory _courseId, address _module_leader) public {\r\n        bytes32 hash = keccak256(bytes(_ipfsHash)); // Convert string to bytes32 hash\r\n\r\n        submissions[hash] = Work({\r\n            ipfsHash: _ipfsHash,\r\n            userAddress: msg.sender,\r\n            moduleLeaderAddress: _module_leader,\r\n            timestamp: block.timestamp,\r\n            courseId: _courseId\r\n        });\r\n        userSubmissions[msg.sender].push(_ipfsHash);\r\n        courseSubmission[_courseId].push(_ipfsHash);\r\n        userSubmission1[msg.sender][_courseId]=_ipfsHash;\r\n         if (!userAlreadySubmitted(msg.sender)) {\r\n            submittedUsers.push(msg.sender);\r\n        }\r\n\r\n        // Emit an event for the submission\r\n        emit DocumentSubmitted(msg.sender, _ipfsHash, _courseId, block.timestamp);\r\n    }\r\n     function getUserSubmissions() public view returns (string[] memory) {\r\n        return userSubmissions[msg.sender]; // Retrieve all submission hashes for the calling user\r\n    }\r\n\tfunction courseSubmissions(string memory courseId) public view returns (string[] memory) {\r\n        return courseSubmission[courseId]; // Retrieve all submission hashes for the calling user\r\n    }\r\n     function userAlreadySubmitted(address user) private view returns (bool) {\r\n        for (uint256 i = 0; i < submittedUsers.length; i++) {\r\n            if (submittedUsers[i] == user) {\r\n                return true;\r\n            }\r\n        }\r\n        return false;\r\n    }\r\n    function submission(string memory courseId) public returns(string[] memory){\r\n    string[] memory courseWorksub=new string[](submittedUsers.length);\r\n    for (uint256 i = 0; i < submittedUsers.length; i++) {\r\n    \t\taddress user=submittedUsers[i];\r\n            courseWorksub[i] = userSubmission1[user][courseId];\r\n        }\r\n\r\n        return courseWorksub;\r\n\r\n    }\r\n    event DocumentSubmitted(address indexed sender, string ipfsHash, string courseId, uint256 timestamp);\r\n\r\n}\r\n",
  "sourcePath": "C:/Users/HP/project/src/contracts/Iprm.sol",
  "compiler": {
    "name": "solc",
    "version": "0.5.0+commit.1d4f565a.Emscripten.clang"
  },
  "schemaVersion": "3.0.2",
  "updatedAt": "2023-08-28T00:13:33.747Z",
  "devdoc": {
    "methods": {}
  },
  "userdoc": {
    "methods": {}
  }
}