{
  "contractName": "Iprm",
  "abi": [
    {
      "constant": true,
      "inputs": [
        {
          "name": "",
          "type": "bytes32"
        }
      ],
      "name": "submissions",
      "outputs": [
        {
          "name": "ipfsHash",
          "type": "string"
        },
        {
          "name": "userAddress",
          "type": "address"
        },
        {
          "name": "moduleLeaderAddress",
          "type": "address"
        },
        {
          "name": "timestamp",
          "type": "uint256"
        },
        {
          "name": "courseId",
          "type": "string"
        }
      ],
      "payable": false,
      "stateMutability": "view",
      "type": "function",
      "signature": "0xc5c9c0a2"
    },
    {
      "anonymous": false,
      "inputs": [
        {
          "indexed": true,
          "name": "sender",
          "type": "address"
        },
        {
          "indexed": false,
          "name": "ipfsHash",
          "type": "string"
        },
        {
          "indexed": false,
          "name": "courseId",
          "type": "string"
        },
        {
          "indexed": false,
          "name": "timestamp",
          "type": "uint256"
        }
      ],
      "name": "DocumentSubmitted",
      "type": "event",
      "signature": "0x175eee4d4f8dfad2f579d81d7006e5bf24defbcc51d00e18fddcda6c00304350"
    },
    {
      "constant": false,
      "inputs": [
        {
          "name": "_ipfsHash",
          "type": "string"
        },
        {
          "name": "_courseId",
          "type": "string"
        },
        {
          "name": "_module_leader",
          "type": "address"
        }
      ],
      "name": "submit",
      "outputs": [],
      "payable": false,
      "stateMutability": "nonpayable",
      "type": "function",
      "signature": "0x6034204e"
    },
    {
      "constant": true,
      "inputs": [],
      "name": "getUserSubmissions",
      "outputs": [
        {
          "name": "",
          "type": "string[]"
        }
      ],
      "payable": false,
      "stateMutability": "view",
      "type": "function",
      "signature": "0xf3344e8a"
    },
    {
      "constant": true,
      "inputs": [
        {
          "name": "courseId",
          "type": "string"
        }
      ],
      "name": "courseSubmissions",
      "outputs": [
        {
          "name": "",
          "type": "string[]"
        }
      ],
      "payable": false,
      "stateMutability": "view",
      "type": "function",
      "signature": "0xa2b7b1df"
    },
    {
      "constant": true,
      "inputs": [
        {
          "name": "_ipfsHash",
          "type": "string"
        }
      ],
      "name": "subm",
      "outputs": [
        {
          "name": "",
          "type": "string"
        },
        {
          "name": "",
          "type": "address"
        },
        {
          "name": "",
          "type": "address"
        },
        {
          "name": "",
          "type": "uint256"
        },
        {
          "name": "",
          "type": "string"
        }
      ],
      "payable": false,
      "stateMutability": "view",
      "type": "function",
      "signature": "0x49832d69"
    },
    {
      "constant": false,
      "inputs": [
        {
          "name": "courseId",
          "type": "string"
        }
      ],
      "name": "submission",
      "outputs": [
        {
          "name": "",
          "type": "string[]"
        }
      ],
      "payable": false,
      "stateMutability": "nonpayable",
      "type": "function",
      "signature": "0xc7a2e0e5"
    }
  ],
  "bytecode": "0x608060405234801561001057600080fd5b50611578806100206000396000f3fe608060405260043610610078576000357c0100000000000000000000000000000000000000000000000000000000900463ffffffff16806349832d691461007d5780636034204e146100be578063a2b7b1df146100e7578063c5c9c0a214610124578063c7a2e0e514610165578063f3344e8a146101a2575b600080fd5b34801561008957600080fd5b506100a4600480360361009f919081019061111e565b6101cd565b6040516100b59594939291906112f8565b60405180910390f35b3480156100ca57600080fd5b506100e560048036036100e0919081019061115f565b610439565b005b3480156100f357600080fd5b5061010e6004803603610109919081019061111e565b61082f565b60405161011b91906112d6565b60405180910390f35b34801561013057600080fd5b5061014b600480360361014691908101906110f5565b610983565b60405161015c95949392919061139e565b60405180910390f35b34801561017157600080fd5b5061018c6004803603610187919081019061111e565b610b29565b60405161019991906112d6565b60405180910390f35b3480156101ae57600080fd5b506101b7610d2d565b6040516101c491906112d6565b60405180910390f35b6060600080600060606000868051906020012090506101ea610ef6565b6002600083815260200190815260200160002060a06040519081016040529081600082018054600181600116156101000203166002900480601f0160208091040260200160405190810160405280929190818152602001828054600181600116156101000203166002900480156102a25780601f10610277576101008083540402835291602001916102a2565b820191906000526020600020905b81548152906001019060200180831161028557829003601f168201915b505050505081526020016001820160009054906101000a900473ffffffffffffffffffffffffffffffffffffffff1673ffffffffffffffffffffffffffffffffffffffff1673ffffffffffffffffffffffffffffffffffffffff1681526020016002820160009054906101000a900473ffffffffffffffffffffffffffffffffffffffff1673ffffffffffffffffffffffffffffffffffffffff1673ffffffffffffffffffffffffffffffffffffffff16815260200160038201548152602001600482018054600181600116156101000203166002900480601f0160208091040260200160405190810160405280929190818152602001828054600181600116156101000203166002900480156103fa5780601f106103cf576101008083540402835291602001916103fa565b820191906000526020600020905b8154815290600101906020018083116103dd57829003601f168201915b50505050508152505090508060000151816020015182604001518360600151846080015184945080905096509650965096509650505091939590929450565b60008380519060200120905060a0604051908101604052808581526020013373ffffffffffffffffffffffffffffffffffffffff1681526020018373ffffffffffffffffffffffffffffffffffffffff168152602001428152602001848152506002600083815260200190815260200160002060008201518160000190805190602001906104c8929190610f52565b5060208201518160010160006101000a81548173ffffffffffffffffffffffffffffffffffffffff021916908373ffffffffffffffffffffffffffffffffffffffff16021790555060408201518160020160006101000a81548173ffffffffffffffffffffffffffffffffffffffff021916908373ffffffffffffffffffffffffffffffffffffffff16021790555060608201518160030155608082015181600401908051906020019061057d929190610f52565b509050506000803373ffffffffffffffffffffffffffffffffffffffff1673ffffffffffffffffffffffffffffffffffffffff1681526020019081526020016000208490806001815401808255809150509060018203906000526020600020016000909192909190915090805190602001906105fa929190610fd2565b50506001836040518082805190602001908083835b602083101515610634578051825260208201915060208101905060208303925061060f565b6001836020036101000a03801982511681845116808217855250505050505090500191505090815260200160405180910390208490806001815401808255809150509060018203906000526020600020016000909192909190915090805190602001906106a2929190610fd2565b505083600360003373ffffffffffffffffffffffffffffffffffffffff1673ffffffffffffffffffffffffffffffffffffffff168152602001908152602001600020846040518082805190602001908083835b60208310151561071a57805182526020820191506020810190506020830392506106f5565b6001836020036101000a03801982511681845116808217855250505050505090500191505090815260200160405180910390209080519060200190610760929190610fd2565b5061076a33610e52565b15156107d75760043390806001815401808255809150509060018203906000526020600020016000909192909190916101000a81548173ffffffffffffffffffffffffffffffffffffffff021916908373ffffffffffffffffffffffffffffffffffffffff160217905550505b3373ffffffffffffffffffffffffffffffffffffffff167f175eee4d4f8dfad2f579d81d7006e5bf24defbcc51d00e18fddcda6c0030435085854260405161082193929190611359565b60405180910390a250505050565b60606001826040518082805190602001908083835b6020831015156108695780518252602082019150602081019050602083039250610844565b6001836020036101000a0380198251168184511680821785525050505050509050019150509081526020016040518091039020805480602002602001604051908101604052809291908181526020016000905b82821015610978578382906000526020600020018054600181600116156101000203166002900480601f0160208091040260200160405190810160405280929190818152602001828054600181600116156101000203166002900480156109645780601f1061093957610100808354040283529160200191610964565b820191906000526020600020905b81548152906001019060200180831161094757829003601f168201915b5050505050815260200190600101906108bc565b505050509050919050565b6002602052806000526040600020600091509050806000018054600181600116156101000203166002900480601f016020809104026020016040519081016040528092919081815260200182805460018160011615610100020316600290048015610a2f5780601f10610a0457610100808354040283529160200191610a2f565b820191906000526020600020905b815481529060010190602001808311610a1257829003601f168201915b5050505050908060010160009054906101000a900473ffffffffffffffffffffffffffffffffffffffff16908060020160009054906101000a900473ffffffffffffffffffffffffffffffffffffffff1690806003015490806004018054600181600116156101000203166002900480601f016020809104026020016040519081016040528092919081815260200182805460018160011615610100020316600290048015610b1f5780601f10610af457610100808354040283529160200191610b1f565b820191906000526020600020905b815481529060010190602001808311610b0257829003601f168201915b5050505050905085565b606080600480549050604051908082528060200260200182016040528015610b6557816020015b6060815260200190600190039081610b505790505b50905060008090505b600480549050811015610d23576000600482815481101515610b8c57fe5b9060005260206000200160009054906101000a900473ffffffffffffffffffffffffffffffffffffffff169050600360008273ffffffffffffffffffffffffffffffffffffffff1673ffffffffffffffffffffffffffffffffffffffff168152602001908152602001600020856040518082805190602001908083835b602083101515610c2e5780518252602082019150602081019050602083039250610c09565b6001836020036101000a03801982511681845116808217855250505050505090500191505090815260200160405180910390208054600181600116156101000203166002900480601f016020809104026020016040519081016040528092919081815260200182805460018160011615610100020316600290048015610cf55780601f10610cca57610100808354040283529160200191610cf5565b820191906000526020600020905b815481529060010190602001808311610cd857829003601f168201915b50505050508383815181101515610d0857fe5b90602001906020020181905250508080600101915050610b6e565b5080915050919050565b60606000803373ffffffffffffffffffffffffffffffffffffffff1673ffffffffffffffffffffffffffffffffffffffff168152602001908152602001600020805480602002602001604051908101604052809291908181526020016000905b82821015610e49578382906000526020600020018054600181600116156101000203166002900480601f016020809104026020016040519081016040528092919081815260200182805460018160011615610100020316600290048015610e355780601f10610e0a57610100808354040283529160200191610e35565b820191906000526020600020905b815481529060010190602001808311610e1857829003601f168201915b505050505081526020019060010190610d8d565b50505050905090565b600080600090505b600480549050811015610eeb578273ffffffffffffffffffffffffffffffffffffffff16600482815481101515610e8d57fe5b9060005260206000200160009054906101000a900473ffffffffffffffffffffffffffffffffffffffff1673ffffffffffffffffffffffffffffffffffffffff161415610ede576001915050610ef1565b8080600101915050610e5a565b50600090505b919050565b60a06040519081016040528060608152602001600073ffffffffffffffffffffffffffffffffffffffff168152602001600073ffffffffffffffffffffffffffffffffffffffff16815260200160008152602001606081525090565b828054600181600116156101000203166002900490600052602060002090601f016020900481019282601f10610f9357805160ff1916838001178555610fc1565b82800160010185558215610fc1579182015b82811115610fc0578251825591602001919060010190610fa5565b5b509050610fce9190611052565b5090565b828054600181600116156101000203166002900490600052602060002090601f016020900481019282601f1061101357805160ff1916838001178555611041565b82800160010185558215611041579182015b82811115611040578251825591602001919060010190611025565b5b50905061104e9190611052565b5090565b61107491905b80821115611070576000816000905550600101611058565b5090565b90565b600061108382356114cf565b905092915050565b600061109782356114e1565b905092915050565b600082601f83011215156110b257600080fd5b81356110c56110c08261142c565b6113ff565b915080825260208301602083018583830111156110e157600080fd5b6110ec8382846114eb565b50505092915050565b60006020828403121561110757600080fd5b60006111158482850161108b565b91505092915050565b60006020828403121561113057600080fd5b600082013567ffffffffffffffff81111561114a57600080fd5b6111568482850161109f565b91505092915050565b60008060006060848603121561117457600080fd5b600084013567ffffffffffffffff81111561118e57600080fd5b61119a8682870161109f565b935050602084013567ffffffffffffffff8111156111b757600080fd5b6111c38682870161109f565b92505060406111d486828701611077565b9150509250925092565b6111e781611493565b82525050565b60006111f882611465565b8084526020840193508360208202850161121185611458565b60005b8481101561124a57838303885261122c838351611291565b925061123782611486565b9150602088019750600181019050611214565b508196508694505050505092915050565b60006112668261147b565b80845261127a8160208601602086016114fa565b6112838161152d565b602085010191505092915050565b600061129c82611470565b8084526112b08160208601602086016114fa565b6112b98161152d565b602085010191505092915050565b6112d0816114c5565b82525050565b600060208201905081810360008301526112f081846111ed565b905092915050565b600060a0820190508181036000830152611312818861125b565b905061132160208301876111de565b61132e60408301866111de565b61133b60608301856112c7565b818103608083015261134d818461125b565b90509695505050505050565b60006060820190508181036000830152611373818661125b565b90508181036020830152611387818561125b565b905061139660408301846112c7565b949350505050565b600060a08201905081810360008301526113b88188611291565b90506113c760208301876111de565b6113d460408301866111de565b6113e160608301856112c7565b81810360808301526113f38184611291565b90509695505050505050565b6000604051905081810181811067ffffffffffffffff8211171561142257600080fd5b8060405250919050565b600067ffffffffffffffff82111561144357600080fd5b601f19601f8301169050602081019050919050565b6000602082019050919050565b600081519050919050565b600081519050919050565b600081519050919050565b6000602082019050919050565b600061149e826114a5565b9050919050565b600073ffffffffffffffffffffffffffffffffffffffff82169050919050565b6000819050919050565b60006114da826114a5565b9050919050565b6000819050919050565b82818337600083830152505050565b60005b838110156115185780820151818401526020810190506114fd565b83811115611527576000848401525b50505050565b6000601f19601f830116905091905056fea265627a7a72305820296d5b65a07c070e4afba9c5487da5cf80adedfde257415dbf34cb597021da9a6c6578706572696d656e74616cf50037",
  "source": "pragma solidity 0.5.0;\r\npragma experimental ABIEncoderV2;\r\n\r\ncontract Iprm{\r\n\t//smart contract goes here\r\n\t struct Work {\r\n        string ipfsHash;\r\n        address userAddress;\r\n        address moduleLeaderAddress;\r\n        uint256 timestamp;\r\n        string courseId;\r\n    }\r\n\t \r\n\r\n     mapping(address => string[]) private userSubmissions;\r\n       mapping(string=> string[]) private courseSubmission ;\r\n\t  mapping(bytes32 => Work) public submissions;\r\n\t  mapping(address=>mapping(string=>string)) private userSubmission1;\r\n\t   address[] private submittedUsers;\r\n\r\n function submit(string memory _ipfsHash, string memory _courseId, address _module_leader) public {\r\n        bytes32 hash = keccak256(bytes(_ipfsHash)); // Convert string to bytes32 hash\r\n\r\n        submissions[hash] = Work({\r\n            ipfsHash: _ipfsHash,\r\n            userAddress: msg.sender,\r\n            moduleLeaderAddress: _module_leader,\r\n            timestamp: block.timestamp,\r\n            courseId: _courseId\r\n        });\r\n        userSubmissions[msg.sender].push(_ipfsHash);\r\n        courseSubmission[_courseId].push(_ipfsHash);\r\n        userSubmission1[msg.sender][_courseId]=_ipfsHash;\r\n         if (!userAlreadySubmitted(msg.sender)) {\r\n            submittedUsers.push(msg.sender);\r\n        }\r\n\r\n        // Emit an event for the submission\r\n        emit DocumentSubmitted(msg.sender, _ipfsHash, _courseId, block.timestamp);\r\n    }\r\n     function getUserSubmissions() public view returns (string[] memory) {\r\n        return userSubmissions[msg.sender]; // Retrieve all submission hashes for the calling user\r\n    }\r\n\tfunction courseSubmissions(string memory courseId) public view returns (string[] memory) {\r\n        return courseSubmission[courseId]; // Retrieve all submission hashes for the calling user\r\n    }\r\n     function userAlreadySubmitted(address user) private view returns (bool) {\r\n        for (uint256 i = 0; i < submittedUsers.length; i++) {\r\n            if (submittedUsers[i] == user) {\r\n                return true;\r\n            }\r\n        }\r\n        return false;\r\n    }\r\n   function subm(string memory _ipfsHash) public view returns (string memory, address, address, uint256, string memory) {\r\n    bytes32 hash = keccak256(bytes(_ipfsHash));\r\n    Work memory work = submissions[hash];\r\n    return (work.ipfsHash, work.userAddress, work.moduleLeaderAddress, work.timestamp, work.courseId);\r\n}\r\n    function submission(string memory courseId) public returns(string[] memory){\r\n    string[] memory courseWorksub=new string[](submittedUsers.length);\r\n    for (uint256 i = 0; i < submittedUsers.length; i++) {\r\n    \t\taddress user=submittedUsers[i];\r\n            courseWorksub[i] = userSubmission1[user][courseId];\r\n        }\r\n\r\n        return courseWorksub;\r\n\r\n    }\r\n    event DocumentSubmitted(address indexed sender, string ipfsHash, string courseId, uint256 timestamp);\r\n\r\n}\r\n",
  "sourcePath": "C:/Users/HP/project/src/contracts/Iprm.sol",
  "compiler": {
    "name": "solc",
    "version": "0.5.0+commit.1d4f565a.Emscripten.clang"
  },
  "schemaVersion": "3.0.2",
  "updatedAt": "2023-09-10T16:13:12.696Z",
  "devdoc": {
    "methods": {}
  },
  "userdoc": {
    "methods": {}
  }
}