{
  "contractName": "Submit",
  "abi": [
    {
      "constant": true,
      "inputs": [
        {
          "name": "",
          "type": "bytes32"
        }
      ],
      "name": "submissions",
      "outputs": [
        {
          "name": "ipfsHash",
          "type": "string"
        },
        {
          "name": "userAddress",
          "type": "address"
        },
        {
          "name": "moduleLeaderAddress",
          "type": "address"
        },
        {
          "name": "timestamp",
          "type": "uint256"
        },
        {
          "name": "courseName",
          "type": "string"
        }
      ],
      "payable": false,
      "stateMutability": "view",
      "type": "function",
      "signature": "0xc5c9c0a2"
    },
    {
      "anonymous": false,
      "inputs": [
        {
          "indexed": true,
          "name": "sender",
          "type": "address"
        },
        {
          "indexed": false,
          "name": "ipfsHash",
          "type": "string"
        },
        {
          "indexed": false,
          "name": "courseName",
          "type": "string"
        },
        {
          "indexed": false,
          "name": "timestamp",
          "type": "uint256"
        }
      ],
      "name": "DocumentSubmitted",
      "type": "event",
      "signature": "0x175eee4d4f8dfad2f579d81d7006e5bf24defbcc51d00e18fddcda6c00304350"
    },
    {
      "constant": false,
      "inputs": [
        {
          "name": "_ipfsHash",
          "type": "string"
        },
        {
          "name": "_courseName",
          "type": "string"
        },
        {
          "name": "_module_leader",
          "type": "address"
        }
      ],
      "name": "submit",
      "outputs": [],
      "payable": false,
      "stateMutability": "nonpayable",
      "type": "function",
      "signature": "0x6034204e"
    }
  ],
  "bytecode": "0x608060405234801561001057600080fd5b50610849806100206000396000f3fe60806040526004361061004c576000357c0100000000000000000000000000000000000000000000000000000000900463ffffffff1680636034204e14610051578063c5c9c0a2146101d0575b600080fd5b34801561005d57600080fd5b506101ce6004803603606081101561007457600080fd5b810190808035906020019064010000000081111561009157600080fd5b8201836020820111156100a357600080fd5b803590602001918460018302840111640100000000831117156100c557600080fd5b91908080601f016020809104026020016040519081016040528093929190818152602001838380828437600081840152601f19601f8201169050808301925050505050505091929192908035906020019064010000000081111561012857600080fd5b82018360208201111561013a57600080fd5b8035906020019184600183028401116401000000008311171561015c57600080fd5b91908080601f016020809104026020016040519081016040528093929190818152602001838380828437600081840152601f19601f820116905080830192505050505050509192919290803573ffffffffffffffffffffffffffffffffffffffff16906020019092919050505061035d565b005b3480156101dc57600080fd5b50610209600480360360208110156101f357600080fd5b81019080803590602001909291905050506105d2565b60405180806020018673ffffffffffffffffffffffffffffffffffffffff1673ffffffffffffffffffffffffffffffffffffffff1681526020018573ffffffffffffffffffffffffffffffffffffffff1673ffffffffffffffffffffffffffffffffffffffff16815260200184815260200180602001838103835288818151815260200191508051906020019080838360005b838110156102b757808201518184015260208101905061029c565b50505050905090810190601f1680156102e45780820380516001836020036101000a031916815260200191505b50838103825284818151815260200191508051906020019080838360005b8381101561031d578082015181840152602081019050610302565b50505050905090810190601f16801561034a5780820380516001836020036101000a031916815260200191505b5097505050505050505060405180910390f35b60008380519060200120905060a0604051908101604052808581526020013373ffffffffffffffffffffffffffffffffffffffff1681526020018373ffffffffffffffffffffffffffffffffffffffff1681526020014281526020018481525060008083815260200190815260200160002060008201518160000190805190602001906103eb929190610778565b5060208201518160010160006101000a81548173ffffffffffffffffffffffffffffffffffffffff021916908373ffffffffffffffffffffffffffffffffffffffff16021790555060408201518160020160006101000a81548173ffffffffffffffffffffffffffffffffffffffff021916908373ffffffffffffffffffffffffffffffffffffffff1602179055506060820151816003015560808201518160040190805190602001906104a0929190610778565b509050503373ffffffffffffffffffffffffffffffffffffffff167f175eee4d4f8dfad2f579d81d7006e5bf24defbcc51d00e18fddcda6c00304350858542604051808060200180602001848152602001838103835286818151815260200191508051906020019080838360005b8381101561052957808201518184015260208101905061050e565b50505050905090810190601f1680156105565780820380516001836020036101000a031916815260200191505b50838103825285818151815260200191508051906020019080838360005b8381101561058f578082015181840152602081019050610574565b50505050905090810190601f1680156105bc5780820380516001836020036101000a031916815260200191505b509550505050505060405180910390a250505050565b6000602052806000526040600020600091509050806000018054600181600116156101000203166002900480601f01602080910402602001604051908101604052809291908181526020018280546001816001161561010002031660029004801561067e5780601f106106535761010080835404028352916020019161067e565b820191906000526020600020905b81548152906001019060200180831161066157829003601f168201915b5050505050908060010160009054906101000a900473ffffffffffffffffffffffffffffffffffffffff16908060020160009054906101000a900473ffffffffffffffffffffffffffffffffffffffff1690806003015490806004018054600181600116156101000203166002900480601f01602080910402602001604051908101604052809291908181526020018280546001816001161561010002031660029004801561076e5780601f106107435761010080835404028352916020019161076e565b820191906000526020600020905b81548152906001019060200180831161075157829003601f168201915b5050505050905085565b828054600181600116156101000203166002900490600052602060002090601f016020900481019282601f106107b957805160ff19168380011785556107e7565b828001600101855582156107e7579182015b828111156107e65782518255916020019190600101906107cb565b5b5090506107f491906107f8565b5090565b61081a91905b808211156108165760008160009055506001016107fe565b5090565b9056fea165627a7a723058203ea6e46e5c716e9e2b1b71a8cdd7a8062d55464fbce91e112ec5b3e0f1caf3100029",
  "source": "pragma solidity 0.5.0;\r\n\r\ncontract Submit {\r\n    struct Work {\r\n        string ipfsHash;\r\n        address userAddress;\r\n        address moduleLeaderAddress;\r\n        uint256 timestamp;\r\n        string courseName;\r\n    }\r\n\r\n    // Use bytes32 as the key type for the mapping\r\n    mapping(bytes32 => Work) public submissions;\r\n\r\n    // Other contract code...\r\n\r\n    function submit(string memory _ipfsHash, string memory _courseName, address _module_leader) public {\r\n        bytes32 hash = keccak256(bytes(_ipfsHash)); // Convert string to bytes32 hash\r\n\r\n        submissions[hash] = Work({\r\n            ipfsHash: _ipfsHash,\r\n            userAddress: msg.sender,\r\n            moduleLeaderAddress: _module_leader,\r\n            timestamp: block.timestamp,\r\n            courseName: _courseName\r\n        });\r\n\r\n        // Emit an event for the submission\r\n        emit DocumentSubmitted(msg.sender, _ipfsHash, _courseName, block.timestamp);\r\n    }\r\n\r\n    event DocumentSubmitted(address indexed sender, string ipfsHash, string courseName, uint256 timestamp);\r\n}",
  "sourcePath": "C:/Users/HP/project/src/contracts/Submit.sol",
  "compiler": {
    "name": "solc",
    "version": "0.5.0+commit.1d4f565a.Emscripten.clang"
  },
  "schemaVersion": "3.0.2",
  "updatedAt": "2023-08-15T17:33:24.232Z",
  "devdoc": {
    "methods": {}
  },
  "userdoc": {
    "methods": {}
  }
}