{
  "contractName": "User",
  "abi": [
    {
      "constant": true,
      "inputs": [
        {
          "name": "",
          "type": "uint256"
        }
      ],
      "name": "universityIdExists",
      "outputs": [
        {
          "name": "",
          "type": "bool"
        }
      ],
      "payable": false,
      "stateMutability": "view",
      "type": "function",
      "signature": "0x94e67bdb"
    },
    {
      "constant": true,
      "inputs": [
        {
          "name": "",
          "type": "address"
        }
      ],
      "name": "users",
      "outputs": [
        {
          "name": "name",
          "type": "string"
        },
        {
          "name": "username",
          "type": "string"
        },
        {
          "name": "passwordHash",
          "type": "bytes32"
        },
        {
          "name": "ethAddress",
          "type": "address"
        },
        {
          "name": "universityId",
          "type": "uint256"
        },
        {
          "name": "isActive",
          "type": "bool"
        }
      ],
      "payable": false,
      "stateMutability": "view",
      "type": "function",
      "signature": "0xa87430ba"
    },
    {
      "constant": false,
      "inputs": [
        {
          "name": "_name",
          "type": "string"
        },
        {
          "name": "_password",
          "type": "string"
        },
        {
          "name": "_ethAddress",
          "type": "address"
        },
        {
          "name": "_universityId",
          "type": "uint256"
        }
      ],
      "name": "addUser",
      "outputs": [],
      "payable": false,
      "stateMutability": "nonpayable",
      "type": "function",
      "signature": "0xfb918e99"
    },
    {
      "constant": true,
      "inputs": [
        {
          "name": "_name",
          "type": "string"
        },
        {
          "name": "_password",
          "type": "string"
        },
        {
          "name": "_ethAddress",
          "type": "address"
        }
      ],
      "name": "getUser",
      "outputs": [
        {
          "name": "",
          "type": "bool"
        }
      ],
      "payable": false,
      "stateMutability": "view",
      "type": "function",
      "signature": "0xd88b5539"
    }
  ],
  "bytecode": "0x608060405234801561001057600080fd5b50610c55806100206000396000f3fe608060405260043610610062576000357c0100000000000000000000000000000000000000000000000000000000900463ffffffff16806394e67bdb14610067578063a87430ba146100ba578063d88b55391461023c578063fb918e99146103d3575b600080fd5b34801561007357600080fd5b506100a06004803603602081101561008a57600080fd5b810190808035906020019092919050505061055c565b604051808215151515815260200191505060405180910390f35b3480156100c657600080fd5b50610109600480360360208110156100dd57600080fd5b81019080803573ffffffffffffffffffffffffffffffffffffffff16906020019092919050505061057c565b6040518080602001806020018781526020018673ffffffffffffffffffffffffffffffffffffffff1673ffffffffffffffffffffffffffffffffffffffff16815260200185815260200184151515158152602001838103835289818151815260200191508051906020019080838360005b8381101561019557808201518184015260208101905061017a565b50505050905090810190601f1680156101c25780820380516001836020036101000a031916815260200191505b50838103825288818151815260200191508051906020019080838360005b838110156101fb5780820151818401526020810190506101e0565b50505050905090810190601f1680156102285780820380516001836020036101000a031916815260200191505b509850505050505050505060405180910390f35b34801561024857600080fd5b506103b96004803603606081101561025f57600080fd5b810190808035906020019064010000000081111561027c57600080fd5b82018360208201111561028e57600080fd5b803590602001918460018302840111640100000000831117156102b057600080fd5b91908080601f016020809104026020016040519081016040528093929190818152602001838380828437600081840152601f19601f8201169050808301925050505050505091929192908035906020019064010000000081111561031357600080fd5b82018360208201111561032557600080fd5b8035906020019184600183028401116401000000008311171561034757600080fd5b91908080601f016020809104026020016040519081016040528093929190818152602001838380828437600081840152601f19601f820116905080830192505050505050509192919290803573ffffffffffffffffffffffffffffffffffffffff169060200190929190505050610715565b604051808215151515815260200191505060405180910390f35b3480156103df57600080fd5b5061055a600480360360808110156103f657600080fd5b810190808035906020019064010000000081111561041357600080fd5b82018360208201111561042557600080fd5b8035906020019184600183028401116401000000008311171561044757600080fd5b91908080601f016020809104026020016040519081016040528093929190818152602001838380828437600081840152601f19601f820116905080830192505050505050509192919290803590602001906401000000008111156104aa57600080fd5b8201836020820111156104bc57600080fd5b803590602001918460018302840111640100000000831117156104de57600080fd5b91908080601f016020809104026020016040519081016040528093929190818152602001838380828437600081840152601f19601f820116905080830192505050505050509192919290803573ffffffffffffffffffffffffffffffffffffffff16906020019092919080359060200190929190505050610810565b005b60016020528060005260406000206000915054906101000a900460ff1681565b6000602052806000526040600020600091509050806000018054600181600116156101000203166002900480601f0160208091040260200160405190810160405280929190818152602001828054600181600116156101000203166002900480156106285780601f106105fd57610100808354040283529160200191610628565b820191906000526020600020905b81548152906001019060200180831161060b57829003601f168201915b505050505090806001018054600181600116156101000203166002900480601f0160208091040260200160405190810160405280929190818152602001828054600181600116156101000203166002900480156106c65780601f1061069b576101008083540402835291602001916106c6565b820191906000526020600020905b8154815290600101906020018083116106a957829003601f168201915b5050505050908060020154908060030160009054906101000a900473ffffffffffffffffffffffffffffffffffffffff16908060040154908060050160009054906101000a900460ff16905086565b600080838051906020012090506060859050600073ffffffffffffffffffffffffffffffffffffffff166000808673ffffffffffffffffffffffffffffffffffffffff1673ffffffffffffffffffffffffffffffffffffffff16815260200190815260200160002060030160009054906101000a900473ffffffffffffffffffffffffffffffffffffffff1673ffffffffffffffffffffffffffffffffffffffff16141580156108055750816000808673ffffffffffffffffffffffffffffffffffffffff1673ffffffffffffffffffffffffffffffffffffffff16815260200190815260200160002060020154145b925050509392505050565b600073ffffffffffffffffffffffffffffffffffffffff166000808473ffffffffffffffffffffffffffffffffffffffff1673ffffffffffffffffffffffffffffffffffffffff16815260200190815260200160002060030160009054906101000a900473ffffffffffffffffffffffffffffffffffffffff1673ffffffffffffffffffffffffffffffffffffffff16141515610915576040517f08c379a00000000000000000000000000000000000000000000000000000000081526004018080602001828103825260178152602001807f5573657220616c7265616479207265676973746572656400000000000000000081525060200191505060405180910390fd5b6001600082815260200190815260200160002060009054906101000a900460ff161515156109ab576040517f08c379a00000000000000000000000000000000000000000000000000000000081526004018080602001828103825260208152602001807f556e697665727369747920494420616c7265616479207265676973746572656481525060200191505060405180910390fd5b600180600083815260200190815260200160002060006101000a81548160ff0219169083151502179055506000838051906020012090506109ea610b32565b60c0604051908101604052808781526020018781526020018381526020018573ffffffffffffffffffffffffffffffffffffffff168152602001848152602001600115158152509050806000808673ffffffffffffffffffffffffffffffffffffffff1673ffffffffffffffffffffffffffffffffffffffff1681526020019081526020016000206000820151816000019080519060200190610a8e929190610b84565b506020820151816001019080519060200190610aab929190610b84565b506040820151816002015560608201518160030160006101000a81548173ffffffffffffffffffffffffffffffffffffffff021916908373ffffffffffffffffffffffffffffffffffffffff1602179055506080820151816004015560a08201518160050160006101000a81548160ff021916908315150217905550905050505050505050565b60c060405190810160405280606081526020016060815260200160008019168152602001600073ffffffffffffffffffffffffffffffffffffffff168152602001600081526020016000151581525090565b828054600181600116156101000203166002900490600052602060002090601f016020900481019282601f10610bc557805160ff1916838001178555610bf3565b82800160010185558215610bf3579182015b82811115610bf2578251825591602001919060010190610bd7565b5b509050610c009190610c04565b5090565b610c2691905b80821115610c22576000816000905550600101610c0a565b5090565b9056fea165627a7a72305820d03ce16ac2c21f41c8376a213077b053080c07d17601dd3006e7d812f20e21be0029",
  "source": "pragma solidity 0.5.0;\r\n\r\ncontract User {\r\n    struct UserStruct {\r\n        string name;\r\n        string username;\r\n        bytes32 passwordHash;\r\n        address ethAddress;\r\n        uint256 universityId;\r\n        bool isActive;\r\n    }\r\n\r\n    mapping(address => UserStruct) public users;\r\n    mapping(uint256 => bool) public universityIdExists;\r\n\r\n    function addUser(\r\n        string memory _name,\r\n        string memory _password,\r\n        address _ethAddress,\r\n        uint256 _universityId\r\n    ) public {\r\n        require(users[_ethAddress].ethAddress == address(0), \"User already registered\");\r\n        require(!universityIdExists[_universityId], \"University ID already registered\");\r\n\r\n        universityIdExists[_universityId] = true;\r\n        \r\n        bytes32 hashedPassword = keccak256(bytes(_password));\r\n        \r\n        UserStruct memory newUser = UserStruct({\r\n            name: _name,\r\n            username: _name,\r\n            passwordHash: hashedPassword,\r\n            ethAddress: _ethAddress,\r\n            universityId: _universityId,\r\n            isActive: true\r\n        });\r\n\r\n        users[_ethAddress] = newUser;\r\n    }\r\n\r\n    function getUser(string memory _name, string memory _password, address _ethAddress) public view returns (bool) {\r\n        bytes32 hash = keccak256(bytes(_password));\r\n        string memory nm = _name;\r\n        \r\n        return (\r\n            users[_ethAddress].ethAddress != address(0)&&\r\n            users[_ethAddress].passwordHash == hash\r\n        );\r\n        \r\n    }\r\n}",
  "sourcePath": "C:/Users/HP/project/src/contracts/User.sol",
  "compiler": {
    "name": "solc",
    "version": "0.5.0+commit.1d4f565a.Emscripten.clang"
  },
  "schemaVersion": "3.0.2",
  "updatedAt": "2023-08-15T17:33:24.235Z",
  "devdoc": {
    "methods": {}
  },
  "userdoc": {
    "methods": {}
  }
}