{
  "contractName": "User",
  "abi": [
    {
      "constant": true,
      "inputs": [],
      "name": "userCount",
      "outputs": [
        {
          "name": "",
          "type": "uint256"
        }
      ],
      "payable": false,
      "stateMutability": "view",
      "type": "function",
      "signature": "0x07973ccf"
    },
    {
      "constant": true,
      "inputs": [
        {
          "name": "",
          "type": "uint256"
        }
      ],
      "name": "userAddresses",
      "outputs": [
        {
          "name": "",
          "type": "address"
        }
      ],
      "payable": false,
      "stateMutability": "view",
      "type": "function",
      "signature": "0x502c9bd5"
    },
    {
      "constant": true,
      "inputs": [
        {
          "name": "",
          "type": "uint256"
        }
      ],
      "name": "universityIdExists",
      "outputs": [
        {
          "name": "",
          "type": "bool"
        }
      ],
      "payable": false,
      "stateMutability": "view",
      "type": "function",
      "signature": "0x94e67bdb"
    },
    {
      "constant": true,
      "inputs": [
        {
          "name": "",
          "type": "address"
        }
      ],
      "name": "users",
      "outputs": [
        {
          "name": "name",
          "type": "string"
        },
        {
          "name": "username",
          "type": "string"
        },
        {
          "name": "passwordHash",
          "type": "bytes32"
        },
        {
          "name": "ethAddress",
          "type": "address"
        },
        {
          "name": "universityId",
          "type": "uint256"
        },
        {
          "name": "isActive",
          "type": "bool"
        },
        {
          "name": "role",
          "type": "string"
        }
      ],
      "payable": false,
      "stateMutability": "view",
      "type": "function",
      "signature": "0xa87430ba"
    },
    {
      "constant": false,
      "inputs": [
        {
          "name": "_name",
          "type": "string"
        },
        {
          "name": "_password",
          "type": "string"
        },
        {
          "name": "_ethAddress",
          "type": "address"
        },
        {
          "name": "_universityId",
          "type": "uint256"
        },
        {
          "name": "_role",
          "type": "string"
        }
      ],
      "name": "addUser",
      "outputs": [],
      "payable": false,
      "stateMutability": "nonpayable",
      "type": "function",
      "signature": "0xf3e7ed15"
    },
    {
      "constant": true,
      "inputs": [
        {
          "name": "_name",
          "type": "string"
        },
        {
          "name": "_password",
          "type": "string"
        },
        {
          "name": "_ethAddress",
          "type": "address"
        }
      ],
      "name": "getUser",
      "outputs": [
        {
          "name": "",
          "type": "bool"
        }
      ],
      "payable": false,
      "stateMutability": "view",
      "type": "function",
      "signature": "0xd88b5539"
    },
    {
      "constant": true,
      "inputs": [
        {
          "name": "_ethAddress",
          "type": "address"
        }
      ],
      "name": "getRole",
      "outputs": [
        {
          "name": "",
          "type": "string"
        }
      ],
      "payable": false,
      "stateMutability": "view",
      "type": "function",
      "signature": "0x44276733"
    },
    {
      "constant": true,
      "inputs": [],
      "name": "getAllUsers",
      "outputs": [
        {
          "components": [
            {
              "name": "name",
              "type": "string"
            },
            {
              "name": "username",
              "type": "string"
            },
            {
              "name": "passwordHash",
              "type": "bytes32"
            },
            {
              "name": "ethAddress",
              "type": "address"
            },
            {
              "name": "universityId",
              "type": "uint256"
            },
            {
              "name": "isActive",
              "type": "bool"
            },
            {
              "name": "role",
              "type": "string"
            }
          ],
          "name": "",
          "type": "tuple[]"
        }
      ],
      "payable": false,
      "stateMutability": "view",
      "type": "function",
      "signature": "0xe2842d79"
    },
    {
      "constant": false,
      "inputs": [
        {
          "name": "_ethAddress",
          "type": "address"
        }
      ],
      "name": "deleteUser",
      "outputs": [],
      "payable": false,
      "stateMutability": "nonpayable",
      "type": "function",
      "signature": "0x5c60f226"
    }
  ],
  "bytecode": "0x608060405234801561001057600080fd5b506119a9806100206000396000f3fe608060405260043610610099576000357c0100000000000000000000000000000000000000000000000000000000900463ffffffff16806307973ccf1461009e57806344276733146100c9578063502c9bd5146101065780635c60f2261461014357806394e67bdb1461016c578063a87430ba146101a9578063d88b5539146101ec578063e2842d7914610229578063f3e7ed1514610254575b600080fd5b3480156100aa57600080fd5b506100b361027d565b6040516100c091906117ff565b60405180910390f35b3480156100d557600080fd5b506100f060048036036100eb91908101906112ac565b610283565b6040516100fd91906116f9565b60405180910390f35b34801561011257600080fd5b5061012d60048036036101289190810190611413565b61043b565b60405161013a91906116a1565b60405180910390f35b34801561014f57600080fd5b5061016a600480360361016591908101906112ac565b610479565b005b34801561017857600080fd5b50610193600480360361018e9190810190611413565b6105c0565b6040516101a091906116de565b60405180910390f35b3480156101b557600080fd5b506101d060048036036101cb91908101906112ac565b6105e0565b6040516101e3979695949392919061171b565b60405180910390f35b3480156101f857600080fd5b50610213600480360361020e91908101906112d5565b610817565b60405161022091906116de565b60405180910390f35b34801561023557600080fd5b5061023e610914565b60405161024b91906116bc565b60405180910390f35b34801561026057600080fd5b5061027b60048036036102769190810190611354565b610d82565b005b60005481565b6060600073ffffffffffffffffffffffffffffffffffffffff16600260008473ffffffffffffffffffffffffffffffffffffffff1673ffffffffffffffffffffffffffffffffffffffff16815260200190815260200160002060030160009054906101000a900473ffffffffffffffffffffffffffffffffffffffff1673ffffffffffffffffffffffffffffffffffffffff1614151515610359576040517f08c379a0000000000000000000000000000000000000000000000000000000008152600401610350906117df565b60405180910390fd5b600260008373ffffffffffffffffffffffffffffffffffffffff1673ffffffffffffffffffffffffffffffffffffffff1681526020019081526020016000206006018054600181600116156101000203166002900480601f01602080910402602001604051908101604052809291908181526020018280546001816001161561010002031660029004801561042f5780601f106104045761010080835404028352916020019161042f565b820191906000526020600020905b81548152906001019060200180831161041257829003601f168201915b50505050509050919050565b60018181548110151561044a57fe5b906000526020600020016000915054906101000a900473ffffffffffffffffffffffffffffffffffffffff1681565b600073ffffffffffffffffffffffffffffffffffffffff16600260008373ffffffffffffffffffffffffffffffffffffffff1673ffffffffffffffffffffffffffffffffffffffff16815260200190815260200160002060030160009054906101000a900473ffffffffffffffffffffffffffffffffffffffff1673ffffffffffffffffffffffffffffffffffffffff161415151561051757600080fd5b6000600102600260008373ffffffffffffffffffffffffffffffffffffffff1673ffffffffffffffffffffffffffffffffffffffff168152602001908152602001600020600201819055506000600260008373ffffffffffffffffffffffffffffffffffffffff1673ffffffffffffffffffffffffffffffffffffffff16815260200190815260200160002060050160006101000a81548160ff02191690831515021790555050565b60036020528060005260406000206000915054906101000a900460ff1681565b6002602052806000526040600020600091509050806000018054600181600116156101000203166002900480601f01602080910402602001604051908101604052809291908181526020018280546001816001161561010002031660029004801561068c5780601f106106615761010080835404028352916020019161068c565b820191906000526020600020905b81548152906001019060200180831161066f57829003601f168201915b505050505090806001018054600181600116156101000203166002900480601f01602080910402602001604051908101604052809291908181526020018280546001816001161561010002031660029004801561072a5780601f106106ff5761010080835404028352916020019161072a565b820191906000526020600020905b81548152906001019060200180831161070d57829003601f168201915b5050505050908060020154908060030160009054906101000a900473ffffffffffffffffffffffffffffffffffffffff16908060040154908060050160009054906101000a900460ff1690806006018054600181600116156101000203166002900480601f01602080910402602001604051908101604052809291908181526020018280546001816001161561010002031660029004801561080d5780601f106107e25761010080835404028352916020019161080d565b820191906000526020600020905b8154815290600101906020018083116107f057829003601f168201915b5050505050905087565b600080838051906020012090506060859050600073ffffffffffffffffffffffffffffffffffffffff16600260008673ffffffffffffffffffffffffffffffffffffffff1673ffffffffffffffffffffffffffffffffffffffff16815260200190815260200160002060030160009054906101000a900473ffffffffffffffffffffffffffffffffffffffff1673ffffffffffffffffffffffffffffffffffffffff1614158015610909575081600260008673ffffffffffffffffffffffffffffffffffffffff1673ffffffffffffffffffffffffffffffffffffffff16815260200190815260200160002060020154145b925050509392505050565b60608060018054905060405190808252806020026020018201604052801561095657816020015b6109436110d7565b81526020019060019003908161093b5790505b50905060008090505b600180549050811015610d7a57600060018281548110151561097d57fe5b9060005260206000200160009054906101000a900473ffffffffffffffffffffffffffffffffffffffff169050600073ffffffffffffffffffffffffffffffffffffffff16600260008373ffffffffffffffffffffffffffffffffffffffff1673ffffffffffffffffffffffffffffffffffffffff16815260200190815260200160002060030160009054906101000a900473ffffffffffffffffffffffffffffffffffffffff1673ffffffffffffffffffffffffffffffffffffffff1614158015610a955750600260008273ffffffffffffffffffffffffffffffffffffffff1673ffffffffffffffffffffffffffffffffffffffff16815260200190815260200160002060050160009054906101000a900460ff165b15610d6c57600260008273ffffffffffffffffffffffffffffffffffffffff1673ffffffffffffffffffffffffffffffffffffffff16815260200190815260200160002060e06040519081016040529081600082018054600181600116156101000203166002900480601f016020809104026020016040519081016040528092919081815260200182805460018160011615610100020316600290048015610b7e5780601f10610b5357610100808354040283529160200191610b7e565b820191906000526020600020905b815481529060010190602001808311610b6157829003601f168201915b50505050508152602001600182018054600181600116156101000203166002900480601f016020809104026020016040519081016040528092919081815260200182805460018160011615610100020316600290048015610c205780601f10610bf557610100808354040283529160200191610c20565b820191906000526020600020905b815481529060010190602001808311610c0357829003601f168201915b50505050508152602001600282015481526020016003820160009054906101000a900473ffffffffffffffffffffffffffffffffffffffff1673ffffffffffffffffffffffffffffffffffffffff1673ffffffffffffffffffffffffffffffffffffffff168152602001600482015481526020016005820160009054906101000a900460ff16151515158152602001600682018054600181600116156101000203166002900480601f016020809104026020016040519081016040528092919081815260200182805460018160011615610100020316600290048015610d475780601f10610d1c57610100808354040283529160200191610d47565b820191906000526020600020905b815481529060010190602001808311610d2a57829003601f168201915b5050505050815250508383815181101515610d5e57fe5b906020019060200201819052505b50808060010191505061095f565b508091505090565b600073ffffffffffffffffffffffffffffffffffffffff16600260008573ffffffffffffffffffffffffffffffffffffffff1673ffffffffffffffffffffffffffffffffffffffff16815260200190815260200160002060030160009054906101000a900473ffffffffffffffffffffffffffffffffffffffff1673ffffffffffffffffffffffffffffffffffffffff16141515610e55576040517f08c379a0000000000000000000000000000000000000000000000000000000008152600401610e4c906117bf565b60405180910390fd5b6003600083815260200190815260200160002060009054906101000a900460ff16151515610eb8576040517f08c379a0000000000000000000000000000000000000000000000000000000008152600401610eaf9061179f565b60405180910390fd5b60016003600084815260200190815260200160002060006101000a81548160ff021916908315150217905550600084805190602001209050610ef8611130565b60e0604051908101604052808881526020018881526020018381526020018673ffffffffffffffffffffffffffffffffffffffff16815260200185815260200160011515815260200184815250905060018590806001815401808255809150509060018203906000526020600020016000909192909190916101000a81548173ffffffffffffffffffffffffffffffffffffffff021916908373ffffffffffffffffffffffffffffffffffffffff1602179055505080600260008773ffffffffffffffffffffffffffffffffffffffff1673ffffffffffffffffffffffffffffffffffffffff1681526020019081526020016000206000820151816000019080519060200190611009929190611189565b506020820151816001019080519060200190611026929190611189565b506040820151816002015560608201518160030160006101000a81548173ffffffffffffffffffffffffffffffffffffffff021916908373ffffffffffffffffffffffffffffffffffffffff1602179055506080820151816004015560a08201518160050160006101000a81548160ff02191690831515021790555060c08201518160060190805190602001906110be929190611189565b5090505060016000540160008190555050505050505050565b60e060405190810160405280606081526020016060815260200160008019168152602001600073ffffffffffffffffffffffffffffffffffffffff16815260200160008152602001600015158152602001606081525090565b60e060405190810160405280606081526020016060815260200160008019168152602001600073ffffffffffffffffffffffffffffffffffffffff16815260200160008152602001600015158152602001606081525090565b828054600181600116156101000203166002900490600052602060002090601f016020900481019282601f106111ca57805160ff19168380011785556111f8565b828001600101855582156111f8579182015b828111156111f75782518255916020019190600101906111dc565b5b5090506112059190611209565b5090565b61122b91905b8082111561122757600081600090555060010161120f565b5090565b90565b600061123a8235611900565b905092915050565b600082601f830112151561125557600080fd5b813561126861126382611847565b61181a565b9150808252602083016020830185838301111561128457600080fd5b61128f83828461191c565b50505092915050565b60006112a48235611912565b905092915050565b6000602082840312156112be57600080fd5b60006112cc8482850161122e565b91505092915050565b6000806000606084860312156112ea57600080fd5b600084013567ffffffffffffffff81111561130457600080fd5b61131086828701611242565b935050602084013567ffffffffffffffff81111561132d57600080fd5b61133986828701611242565b925050604061134a8682870161122e565b9150509250925092565b600080600080600060a0868803121561136c57600080fd5b600086013567ffffffffffffffff81111561138657600080fd5b61139288828901611242565b955050602086013567ffffffffffffffff8111156113af57600080fd5b6113bb88828901611242565b94505060406113cc8882890161122e565b93505060606113dd88828901611298565b925050608086013567ffffffffffffffff8111156113fa57600080fd5b61140688828901611242565b9150509295509295909350565b60006020828403121561142557600080fd5b600061143384828501611298565b91505092915050565b611445816118ae565b82525050565b600061145682611880565b8084526020840193508360208202850161146f85611873565b60005b848110156114a857838303885261148a8383516115e8565b9250611495826118a1565b9150602088019750600181019050611472565b508196508694505050505092915050565b6114c2816118c0565b82525050565b6114d1816118cc565b82525050565b60006114e282611896565b8084526114f681602086016020860161192b565b6114ff8161195e565b602085010191505092915050565b60006115188261188b565b80845261152c81602086016020860161192b565b6115358161195e565b602085010191505092915050565b6000602082527f556e697665727369747920494420616c726561647920726567697374657265646020830152604082019050919050565b6000601782527f5573657220616c726561647920726567697374657265640000000000000000006020830152604082019050919050565b6000601282527f5553657220646f65736e277420657869737400000000000000000000000000006020830152604082019050919050565b600060e0830160008301518482036000860152611605828261150d565b9150506020830151848203602086015261161f828261150d565b915050604083015161163460408601826114c8565b506060830151611647606086018261143c565b50608083015161165a6080860182611692565b5060a083015161166d60a08601826114b9565b5060c083015184820360c0860152611685828261150d565b9150508091505092915050565b61169b816118f6565b82525050565b60006020820190506116b6600083018461143c565b92915050565b600060208201905081810360008301526116d6818461144b565b905092915050565b60006020820190506116f360008301846114b9565b92915050565b6000602082019050818103600083015261171381846114d7565b905092915050565b600060e0820190508181036000830152611735818a61150d565b90508181036020830152611749818961150d565b905061175860408301886114c8565b611765606083018761143c565b6117726080830186611692565b61177f60a08301856114b9565b81810360c0830152611791818461150d565b905098975050505050505050565b600060208201905081810360008301526117b881611543565b9050919050565b600060208201905081810360008301526117d88161157a565b9050919050565b600060208201905081810360008301526117f8816115b1565b9050919050565b60006020820190506118146000830184611692565b92915050565b6000604051905081810181811067ffffffffffffffff8211171561183d57600080fd5b8060405250919050565b600067ffffffffffffffff82111561185e57600080fd5b601f19601f8301169050602081019050919050565b6000602082019050919050565b600081519050919050565b600081519050919050565b600081519050919050565b6000602082019050919050565b60006118b9826118d6565b9050919050565b60008115159050919050565b6000819050919050565b600073ffffffffffffffffffffffffffffffffffffffff82169050919050565b6000819050919050565b600061190b826118d6565b9050919050565b6000819050919050565b82818337600083830152505050565b60005b8381101561194957808201518184015260208101905061192e565b83811115611958576000848401525b50505050565b6000601f19601f830116905091905056fea265627a7a7230582008db0b6f913f53f44aadbe6855b9b553d6f56e7f3a6b719788e704179a72778c6c6578706572696d656e74616cf50037",
  "source": "pragma solidity 0.5.0;\r\npragma experimental ABIEncoderV2;\r\n\r\ncontract User {\r\n    uint256 public userCount;\r\n    struct UserStruct {\r\n        string name;\r\n        string username;\r\n        bytes32 passwordHash;\r\n        address ethAddress;\r\n        uint256 universityId;\r\n        bool isActive;\r\n        string role;\r\n    }\r\n    address[] public userAddresses;\r\n    mapping(address => UserStruct) public users;\r\n    mapping(uint256 => bool) public universityIdExists;\r\n\r\n    function addUser(\r\n        string memory _name,\r\n        string memory _password,\r\n        address _ethAddress,\r\n        uint256 _universityId,\r\n        string memory _role\r\n    ) public {\r\n        require(users[_ethAddress].ethAddress == address(0), \"User already registered\");\r\n        require(!universityIdExists[_universityId], \"University ID already registered\");\r\n\r\n        universityIdExists[_universityId] = true;\r\n        \r\n        bytes32 hashedPassword = keccak256(bytes(_password));\r\n        \r\n        UserStruct memory newUser = UserStruct({\r\n            name: _name,\r\n            username: _name,\r\n            passwordHash: hashedPassword,\r\n            ethAddress: _ethAddress,\r\n            universityId: _universityId,\r\n            role:_role,\r\n            isActive: true\r\n        });\r\n        userAddresses.push(_ethAddress);\r\n        users[_ethAddress] = newUser;\r\n        userCount=userCount+1;\r\n    }\r\n\r\n    function getUser(string memory _name, string memory _password, address _ethAddress) public view returns (bool) {\r\n        bytes32 hash = keccak256(bytes(_password));\r\n        string memory nm = _name;\r\n        \r\n        return (\r\n            users[_ethAddress].ethAddress != address(0)&&\r\n            users[_ethAddress].passwordHash == hash\r\n        );\r\n        \r\n    }\r\n    function getRole(address _ethAddress) public view returns (string memory){\r\n    require(users[_ethAddress].ethAddress !=address(0),\"USer doesn't exist\");\r\n    return users[_ethAddress].role;\r\n    }\r\n          function getAllUsers() public view returns (UserStruct[] memory) {\r\n        UserStruct[] memory allUsers = new UserStruct[](userAddresses.length);\r\n        \r\n        for (uint256 index = 0; index < userAddresses.length; index++) {\r\n            address userAddress = userAddresses[index];\r\n            if (users[userAddress].ethAddress != address(0) && users[userAddress].isActive) {\r\n                allUsers[index] = users[userAddress];\r\n            }\r\n        }\r\n\r\n        return allUsers;\r\n    }\r\n    function deleteUser(address _ethAddress) public{\r\n    require(users[_ethAddress].ethAddress != address(0));\r\n  //      users[_ethAddress].ethAddress = 0x0;\r\n        users[_ethAddress].passwordHash = 0x0; \r\n        users[_ethAddress].isActive = false; \r\n    }\r\n\r\n\r\n\r\n}",
  "sourcePath": "C:/Users/HP/project/src/contracts/User.sol",
  "compiler": {
    "name": "solc",
    "version": "0.5.0+commit.1d4f565a.Emscripten.clang"
  },
  "schemaVersion": "3.0.2",
  "updatedAt": "2023-08-20T16:08:25.600Z",
  "devdoc": {
    "methods": {}
  },
  "userdoc": {
    "methods": {}
  }
}