{
  "contractName": "User",
  "abi": [
    {
      "constant": true,
      "inputs": [],
      "name": "userCount",
      "outputs": [
        {
          "name": "",
          "type": "uint256"
        }
      ],
      "payable": false,
      "stateMutability": "view",
      "type": "function",
      "signature": "0x07973ccf"
    },
    {
      "constant": true,
      "inputs": [
        {
          "name": "",
          "type": "uint256"
        }
      ],
      "name": "userAddresses",
      "outputs": [
        {
          "name": "",
          "type": "address"
        }
      ],
      "payable": false,
      "stateMutability": "view",
      "type": "function",
      "signature": "0x502c9bd5"
    },
    {
      "constant": true,
      "inputs": [
        {
          "name": "",
          "type": "uint256"
        }
      ],
      "name": "universityIdExists",
      "outputs": [
        {
          "name": "",
          "type": "bool"
        }
      ],
      "payable": false,
      "stateMutability": "view",
      "type": "function",
      "signature": "0x94e67bdb"
    },
    {
      "constant": true,
      "inputs": [
        {
          "name": "",
          "type": "address"
        }
      ],
      "name": "users",
      "outputs": [
        {
          "name": "name",
          "type": "string"
        },
        {
          "name": "username",
          "type": "string"
        },
        {
          "name": "passwordHash",
          "type": "bytes32"
        },
        {
          "name": "ethAddress",
          "type": "address"
        },
        {
          "name": "universityId",
          "type": "uint256"
        },
        {
          "name": "isActive",
          "type": "bool"
        },
        {
          "name": "courseName",
          "type": "string"
        },
        {
          "name": "role",
          "type": "string"
        }
      ],
      "payable": false,
      "stateMutability": "view",
      "type": "function",
      "signature": "0xa87430ba"
    },
    {
      "constant": false,
      "inputs": [
        {
          "name": "_name",
          "type": "string"
        },
        {
          "name": "_password",
          "type": "string"
        },
        {
          "name": "_ethAddress",
          "type": "address"
        },
        {
          "name": "_universityId",
          "type": "uint256"
        },
        {
          "name": "_courseName",
          "type": "string"
        },
        {
          "name": "_role",
          "type": "string"
        }
      ],
      "name": "addUser",
      "outputs": [],
      "payable": false,
      "stateMutability": "nonpayable",
      "type": "function",
      "signature": "0xd6aa1d2a"
    },
    {
      "constant": true,
      "inputs": [
        {
          "name": "_name",
          "type": "string"
        },
        {
          "name": "_password",
          "type": "string"
        },
        {
          "name": "_ethAddress",
          "type": "address"
        }
      ],
      "name": "getUser",
      "outputs": [
        {
          "name": "",
          "type": "bool"
        }
      ],
      "payable": false,
      "stateMutability": "view",
      "type": "function",
      "signature": "0xd88b5539"
    },
    {
      "constant": true,
      "inputs": [
        {
          "name": "_ethAddress",
          "type": "address"
        }
      ],
      "name": "getRole",
      "outputs": [
        {
          "name": "",
          "type": "string"
        }
      ],
      "payable": false,
      "stateMutability": "view",
      "type": "function",
      "signature": "0x44276733"
    },
    {
      "constant": true,
      "inputs": [],
      "name": "getAllUsers",
      "outputs": [
        {
          "components": [
            {
              "name": "name",
              "type": "string"
            },
            {
              "name": "username",
              "type": "string"
            },
            {
              "name": "passwordHash",
              "type": "bytes32"
            },
            {
              "name": "ethAddress",
              "type": "address"
            },
            {
              "name": "universityId",
              "type": "uint256"
            },
            {
              "name": "isActive",
              "type": "bool"
            },
            {
              "name": "courseName",
              "type": "string"
            },
            {
              "name": "role",
              "type": "string"
            }
          ],
          "name": "",
          "type": "tuple[]"
        }
      ],
      "payable": false,
      "stateMutability": "view",
      "type": "function",
      "signature": "0xe2842d79"
    },
    {
      "constant": true,
      "inputs": [
        {
          "name": "_ethAddress",
          "type": "address"
        }
      ],
      "name": "getUsercourse",
      "outputs": [
        {
          "name": "",
          "type": "string"
        }
      ],
      "payable": false,
      "stateMutability": "view",
      "type": "function",
      "signature": "0x03776292"
    },
    {
      "constant": false,
      "inputs": [
        {
          "name": "_ethAddress",
          "type": "address"
        }
      ],
      "name": "deleteUser",
      "outputs": [],
      "payable": false,
      "stateMutability": "nonpayable",
      "type": "function",
      "signature": "0x5c60f226"
    }
  ],
  "bytecode": "0x608060405234801561001057600080fd5b50611d7b806100206000396000f3fe6080604052600436106100a4576000357c0100000000000000000000000000000000000000000000000000000000900463ffffffff16806303776292146100a957806307973ccf146100e65780634427673314610111578063502c9bd51461014e5780635c60f2261461018b57806394e67bdb146101b4578063a87430ba146101f1578063d6aa1d2a14610235578063d88b55391461025e578063e2842d791461029b575b600080fd5b3480156100b557600080fd5b506100d060048036036100cb9190810190611623565b6102c6565b6040516100dd9190611ab5565b60405180910390f35b3480156100f257600080fd5b506100fb61047e565b6040516101089190611bd1565b60405180910390f35b34801561011d57600080fd5b5061013860048036036101339190810190611623565b610484565b6040516101459190611ab5565b60405180910390f35b34801561015a57600080fd5b50610175600480360361017091908101906117b4565b61063c565b6040516101829190611a5d565b60405180910390f35b34801561019757600080fd5b506101b260048036036101ad9190810190611623565b61067a565b005b3480156101c057600080fd5b506101db60048036036101d691908101906117b4565b6107c1565b6040516101e89190611a9a565b60405180910390f35b3480156101fd57600080fd5b5061021860048036036102139190810190611623565b6107e1565b60405161022c989796959493929190611ad7565b60405180910390f35b34801561024157600080fd5b5061025c600480360361025791908101906116cb565b610ab6565b005b34801561026a57600080fd5b506102856004803603610280919081019061164c565b610e30565b6040516102929190611a9a565b60405180910390f35b3480156102a757600080fd5b506102b0610f2d565b6040516102bd9190611a78565b60405180910390f35b6060600073ffffffffffffffffffffffffffffffffffffffff16600260008473ffffffffffffffffffffffffffffffffffffffff1673ffffffffffffffffffffffffffffffffffffffff16815260200190815260200160002060030160009054906101000a900473ffffffffffffffffffffffffffffffffffffffff1673ffffffffffffffffffffffffffffffffffffffff161415151561039c576040517f08c379a000000000000000000000000000000000000000000000000000000000815260040161039390611bb1565b60405180910390fd5b600260008373ffffffffffffffffffffffffffffffffffffffff1673ffffffffffffffffffffffffffffffffffffffff1681526020019081526020016000206006018054600181600116156101000203166002900480601f0160208091040260200160405190810160405280929190818152602001828054600181600116156101000203166002900480156104725780601f1061044757610100808354040283529160200191610472565b820191906000526020600020905b81548152906001019060200180831161045557829003601f168201915b50505050509050919050565b60005481565b6060600073ffffffffffffffffffffffffffffffffffffffff16600260008473ffffffffffffffffffffffffffffffffffffffff1673ffffffffffffffffffffffffffffffffffffffff16815260200190815260200160002060030160009054906101000a900473ffffffffffffffffffffffffffffffffffffffff1673ffffffffffffffffffffffffffffffffffffffff161415151561055a576040517f08c379a000000000000000000000000000000000000000000000000000000000815260040161055190611bb1565b60405180910390fd5b600260008373ffffffffffffffffffffffffffffffffffffffff1673ffffffffffffffffffffffffffffffffffffffff1681526020019081526020016000206007018054600181600116156101000203166002900480601f0160208091040260200160405190810160405280929190818152602001828054600181600116156101000203166002900480156106305780601f1061060557610100808354040283529160200191610630565b820191906000526020600020905b81548152906001019060200180831161061357829003601f168201915b50505050509050919050565b60018181548110151561064b57fe5b906000526020600020016000915054906101000a900473ffffffffffffffffffffffffffffffffffffffff1681565b600073ffffffffffffffffffffffffffffffffffffffff16600260008373ffffffffffffffffffffffffffffffffffffffff1673ffffffffffffffffffffffffffffffffffffffff16815260200190815260200160002060030160009054906101000a900473ffffffffffffffffffffffffffffffffffffffff1673ffffffffffffffffffffffffffffffffffffffff161415151561071857600080fd5b6000600102600260008373ffffffffffffffffffffffffffffffffffffffff1673ffffffffffffffffffffffffffffffffffffffff168152602001908152602001600020600201819055506000600260008373ffffffffffffffffffffffffffffffffffffffff1673ffffffffffffffffffffffffffffffffffffffff16815260200190815260200160002060050160006101000a81548160ff02191690831515021790555050565b60036020528060005260406000206000915054906101000a900460ff1681565b6002602052806000526040600020600091509050806000018054600181600116156101000203166002900480601f01602080910402602001604051908101604052809291908181526020018280546001816001161561010002031660029004801561088d5780601f106108625761010080835404028352916020019161088d565b820191906000526020600020905b81548152906001019060200180831161087057829003601f168201915b505050505090806001018054600181600116156101000203166002900480601f01602080910402602001604051908101604052809291908181526020018280546001816001161561010002031660029004801561092b5780601f106109005761010080835404028352916020019161092b565b820191906000526020600020905b81548152906001019060200180831161090e57829003601f168201915b5050505050908060020154908060030160009054906101000a900473ffffffffffffffffffffffffffffffffffffffff16908060040154908060050160009054906101000a900460ff1690806006018054600181600116156101000203166002900480601f016020809104026020016040519081016040528092919081815260200182805460018160011615610100020316600290048015610a0e5780601f106109e357610100808354040283529160200191610a0e565b820191906000526020600020905b8154815290600101906020018083116109f157829003601f168201915b505050505090806007018054600181600116156101000203166002900480601f016020809104026020016040519081016040528092919081815260200182805460018160011615610100020316600290048015610aac5780601f10610a8157610100808354040283529160200191610aac565b820191906000526020600020905b815481529060010190602001808311610a8f57829003601f168201915b5050505050905088565b600073ffffffffffffffffffffffffffffffffffffffff16600260008673ffffffffffffffffffffffffffffffffffffffff1673ffffffffffffffffffffffffffffffffffffffff16815260200190815260200160002060030160009054906101000a900473ffffffffffffffffffffffffffffffffffffffff1673ffffffffffffffffffffffffffffffffffffffff16141515610b89576040517f08c379a0000000000000000000000000000000000000000000000000000000008152600401610b8090611b91565b60405180910390fd5b6003600084815260200190815260200160002060009054906101000a900460ff16151515610bec576040517f08c379a0000000000000000000000000000000000000000000000000000000008152600401610be390611b71565b60405180910390fd5b60016003600085815260200190815260200160002060006101000a81548160ff021916908315150217905550600085805190602001209050610c2c61143e565b610100604051908101604052808981526020018981526020018381526020018773ffffffffffffffffffffffffffffffffffffffff16815260200186815260200160011515815260200185815260200184815250905060018690806001815401808255809150509060018203906000526020600020016000909192909190916101000a81548173ffffffffffffffffffffffffffffffffffffffff021916908373ffffffffffffffffffffffffffffffffffffffff1602179055505080600260008873ffffffffffffffffffffffffffffffffffffffff1673ffffffffffffffffffffffffffffffffffffffff1681526020019081526020016000206000820151816000019080519060200190610d4492919061149f565b506020820151816001019080519060200190610d6192919061149f565b506040820151816002015560608201518160030160006101000a81548173ffffffffffffffffffffffffffffffffffffffff021916908373ffffffffffffffffffffffffffffffffffffffff1602179055506080820151816004015560a08201518160050160006101000a81548160ff02191690831515021790555060c0820151816006019080519060200190610df992919061149f565b5060e0820151816007019080519060200190610e1692919061149f565b509050506001600054016000819055505050505050505050565b600080838051906020012090506060859050600073ffffffffffffffffffffffffffffffffffffffff16600260008673ffffffffffffffffffffffffffffffffffffffff1673ffffffffffffffffffffffffffffffffffffffff16815260200190815260200160002060030160009054906101000a900473ffffffffffffffffffffffffffffffffffffffff1673ffffffffffffffffffffffffffffffffffffffff1614158015610f22575081600260008673ffffffffffffffffffffffffffffffffffffffff1673ffffffffffffffffffffffffffffffffffffffff16815260200190815260200160002060020154145b925050509392505050565b606080600180549050604051908082528060200260200182016040528015610f6f57816020015b610f5c61151f565b815260200190600190039081610f545790505b50905060008090505b600180549050811015611436576000600182815481101515610f9657fe5b9060005260206000200160009054906101000a900473ffffffffffffffffffffffffffffffffffffffff169050600073ffffffffffffffffffffffffffffffffffffffff16600260008373ffffffffffffffffffffffffffffffffffffffff1673ffffffffffffffffffffffffffffffffffffffff16815260200190815260200160002060030160009054906101000a900473ffffffffffffffffffffffffffffffffffffffff1673ffffffffffffffffffffffffffffffffffffffff16141580156110ae5750600260008273ffffffffffffffffffffffffffffffffffffffff1673ffffffffffffffffffffffffffffffffffffffff16815260200190815260200160002060050160009054906101000a900460ff165b1561142857600260008273ffffffffffffffffffffffffffffffffffffffff1673ffffffffffffffffffffffffffffffffffffffff1681526020019081526020016000206101006040519081016040529081600082018054600181600116156101000203166002900480601f0160208091040260200160405190810160405280929190818152602001828054600181600116156101000203166002900480156111985780601f1061116d57610100808354040283529160200191611198565b820191906000526020600020905b81548152906001019060200180831161117b57829003601f168201915b50505050508152602001600182018054600181600116156101000203166002900480601f01602080910402602001604051908101604052809291908181526020018280546001816001161561010002031660029004801561123a5780601f1061120f5761010080835404028352916020019161123a565b820191906000526020600020905b81548152906001019060200180831161121d57829003601f168201915b50505050508152602001600282015481526020016003820160009054906101000a900473ffffffffffffffffffffffffffffffffffffffff1673ffffffffffffffffffffffffffffffffffffffff1673ffffffffffffffffffffffffffffffffffffffff168152602001600482015481526020016005820160009054906101000a900460ff16151515158152602001600682018054600181600116156101000203166002900480601f0160208091040260200160405190810160405280929190818152602001828054600181600116156101000203166002900480156113615780601f1061133657610100808354040283529160200191611361565b820191906000526020600020905b81548152906001019060200180831161134457829003601f168201915b50505050508152602001600782018054600181600116156101000203166002900480601f0160208091040260200160405190810160405280929190818152602001828054600181600116156101000203166002900480156114035780601f106113d857610100808354040283529160200191611403565b820191906000526020600020905b8154815290600101906020018083116113e657829003601f168201915b505050505081525050838381518110151561141a57fe5b906020019060200201819052505b508080600101915050610f78565b508091505090565b61010060405190810160405280606081526020016060815260200160008019168152602001600073ffffffffffffffffffffffffffffffffffffffff1681526020016000815260200160001515815260200160608152602001606081525090565b828054600181600116156101000203166002900490600052602060002090601f016020900481019282601f106114e057805160ff191683800117855561150e565b8280016001018555821561150e579182015b8281111561150d5782518255916020019190600101906114f2565b5b50905061151b9190611580565b5090565b61010060405190810160405280606081526020016060815260200160008019168152602001600073ffffffffffffffffffffffffffffffffffffffff1681526020016000815260200160001515815260200160608152602001606081525090565b6115a291905b8082111561159e576000816000905550600101611586565b5090565b90565b60006115b18235611cd2565b905092915050565b600082601f83011215156115cc57600080fd5b81356115df6115da82611c19565b611bec565b915080825260208301602083018583830111156115fb57600080fd5b611606838284611cee565b50505092915050565b600061161b8235611ce4565b905092915050565b60006020828403121561163557600080fd5b6000611643848285016115a5565b91505092915050565b60008060006060848603121561166157600080fd5b600084013567ffffffffffffffff81111561167b57600080fd5b611687868287016115b9565b935050602084013567ffffffffffffffff8111156116a457600080fd5b6116b0868287016115b9565b92505060406116c1868287016115a5565b9150509250925092565b60008060008060008060c087890312156116e457600080fd5b600087013567ffffffffffffffff8111156116fe57600080fd5b61170a89828a016115b9565b965050602087013567ffffffffffffffff81111561172757600080fd5b61173389828a016115b9565b955050604061174489828a016115a5565b945050606061175589828a0161160f565b935050608087013567ffffffffffffffff81111561177257600080fd5b61177e89828a016115b9565b92505060a087013567ffffffffffffffff81111561179b57600080fd5b6117a789828a016115b9565b9150509295509295509295565b6000602082840312156117c657600080fd5b60006117d48482850161160f565b91505092915050565b6117e681611c80565b82525050565b60006117f782611c52565b8084526020840193508360208202850161181085611c45565b60005b8481101561184957838303885261182b838351611989565b925061183682611c73565b9150602088019750600181019050611813565b508196508694505050505092915050565b61186381611c92565b82525050565b61187281611c9e565b82525050565b600061188382611c68565b808452611897816020860160208601611cfd565b6118a081611d30565b602085010191505092915050565b60006118b982611c5d565b8084526118cd816020860160208601611cfd565b6118d681611d30565b602085010191505092915050565b6000602082527f556e697665727369747920494420616c726561647920726567697374657265646020830152604082019050919050565b6000601782527f5573657220616c726561647920726567697374657265640000000000000000006020830152604082019050919050565b6000601282527f5553657220646f65736e277420657869737400000000000000000000000000006020830152604082019050919050565b60006101008301600083015184820360008601526119a782826118ae565b915050602083015184820360208601526119c182826118ae565b91505060408301516119d66040860182611869565b5060608301516119e960608601826117dd565b5060808301516119fc6080860182611a4e565b5060a0830151611a0f60a086018261185a565b5060c083015184820360c0860152611a2782826118ae565b91505060e083015184820360e0860152611a4182826118ae565b9150508091505092915050565b611a5781611cc8565b82525050565b6000602082019050611a7260008301846117dd565b92915050565b60006020820190508181036000830152611a9281846117ec565b905092915050565b6000602082019050611aaf600083018461185a565b92915050565b60006020820190508181036000830152611acf8184611878565b905092915050565b6000610100820190508181036000830152611af2818b6118ae565b90508181036020830152611b06818a6118ae565b9050611b156040830189611869565b611b2260608301886117dd565b611b2f6080830187611a4e565b611b3c60a083018661185a565b81810360c0830152611b4e81856118ae565b905081810360e0830152611b6281846118ae565b90509998505050505050505050565b60006020820190508181036000830152611b8a816118e4565b9050919050565b60006020820190508181036000830152611baa8161191b565b9050919050565b60006020820190508181036000830152611bca81611952565b9050919050565b6000602082019050611be66000830184611a4e565b92915050565b6000604051905081810181811067ffffffffffffffff82111715611c0f57600080fd5b8060405250919050565b600067ffffffffffffffff821115611c3057600080fd5b601f19601f8301169050602081019050919050565b6000602082019050919050565b600081519050919050565b600081519050919050565b600081519050919050565b6000602082019050919050565b6000611c8b82611ca8565b9050919050565b60008115159050919050565b6000819050919050565b600073ffffffffffffffffffffffffffffffffffffffff82169050919050565b6000819050919050565b6000611cdd82611ca8565b9050919050565b6000819050919050565b82818337600083830152505050565b60005b83811015611d1b578082015181840152602081019050611d00565b83811115611d2a576000848401525b50505050565b6000601f19601f830116905091905056fea265627a7a72305820ab3c7c09c58d93b93df292ddce0296564f1c32c7d3e06f8041da0689f9430ff06c6578706572696d656e74616cf50037",
  "source": "pragma solidity 0.5.0;\r\npragma experimental ABIEncoderV2;\r\n\r\ncontract User {\r\n    uint256 public userCount;\r\n    struct UserStruct {\r\n        string name;\r\n        string username;\r\n        bytes32 passwordHash;\r\n        address ethAddress;\r\n        uint256 universityId;\r\n        bool isActive;\r\n        string courseName;\r\n        string role;\r\n    }\r\n    address[] public userAddresses;\r\n    mapping(address => UserStruct) public users;\r\n    mapping(uint256 => bool) public universityIdExists;\r\n\r\n    function addUser(\r\n        string memory _name,\r\n        string memory _password,\r\n        address _ethAddress,\r\n        uint256 _universityId,\r\n        string memory _courseName,\r\n        string memory _role\r\n    ) public {\r\n        require(users[_ethAddress].ethAddress == address(0), \"User already registered\");\r\n        require(!universityIdExists[_universityId], \"University ID already registered\");\r\n\r\n        universityIdExists[_universityId] = true;\r\n        \r\n        bytes32 hashedPassword = keccak256(bytes(_password));\r\n        \r\n        UserStruct memory newUser = UserStruct({\r\n            name: _name,\r\n            username: _name,\r\n            passwordHash: hashedPassword,\r\n            ethAddress: _ethAddress,\r\n            universityId: _universityId,\r\n            role:_role,\r\n            courseName:_courseName,\r\n            isActive: true\r\n        });\r\n        userAddresses.push(_ethAddress);\r\n        users[_ethAddress] = newUser;\r\n        userCount=userCount+1;\r\n    }\r\n\r\n    function getUser(string memory _name, string memory _password, address _ethAddress) public view returns (bool) {\r\n        bytes32 hash = keccak256(bytes(_password));\r\n        string memory nm = _name;\r\n        \r\n        return (\r\n            users[_ethAddress].ethAddress != address(0)&&\r\n            users[_ethAddress].passwordHash == hash\r\n        );\r\n        \r\n    }\r\n    function getRole(address _ethAddress) public view returns (string memory){\r\n    require(users[_ethAddress].ethAddress !=address(0),\"USer doesn't exist\");\r\n    return users[_ethAddress].role;\r\n    }\r\n          function getAllUsers() public view returns (UserStruct[] memory) {\r\n        UserStruct[] memory allUsers = new UserStruct[](userAddresses.length);\r\n        \r\n        for (uint256 index = 0; index < userAddresses.length; index++) {\r\n            address userAddress = userAddresses[index];\r\n            if (users[userAddress].ethAddress != address(0) && users[userAddress].isActive) {\r\n                allUsers[index] = users[userAddress];\r\n            }\r\n        }\r\n\r\n        return allUsers;\r\n    }\r\n    function getUsercourse(address _ethAddress) public view returns (string memory){\r\n    require(users[_ethAddress].ethAddress !=address(0),\"USer doesn't exist\");\r\n    return users[_ethAddress].courseName;\r\n    }\r\n    function deleteUser(address _ethAddress) public{\r\n    require(users[_ethAddress].ethAddress != address(0));\r\n  //      users[_ethAddress].ethAddress = 0x0;\r\n        users[_ethAddress].passwordHash = 0x0; \r\n        users[_ethAddress].isActive = false; \r\n    }\r\n\r\n\r\n\r\n}",
  "sourcePath": "C:/Users/HP/project/src/contracts/User.sol",
  "compiler": {
    "name": "solc",
    "version": "0.5.0+commit.1d4f565a.Emscripten.clang"
  },
  "schemaVersion": "3.0.2",
  "updatedAt": "2023-08-28T00:13:33.754Z",
  "devdoc": {
    "methods": {}
  },
  "userdoc": {
    "methods": {}
  }
}