{
  "contractName": "User",
  "abi": [
    {
      "constant": true,
      "inputs": [],
      "name": "userCount",
      "outputs": [
        {
          "name": "",
          "type": "uint256"
        }
      ],
      "payable": false,
      "stateMutability": "view",
      "type": "function",
      "signature": "0x07973ccf"
    },
    {
      "constant": true,
      "inputs": [
        {
          "name": "",
          "type": "uint256"
        }
      ],
      "name": "userAddresses",
      "outputs": [
        {
          "name": "",
          "type": "address"
        }
      ],
      "payable": false,
      "stateMutability": "view",
      "type": "function",
      "signature": "0x502c9bd5"
    },
    {
      "constant": true,
      "inputs": [
        {
          "name": "",
          "type": "uint256"
        }
      ],
      "name": "universityIdExists",
      "outputs": [
        {
          "name": "",
          "type": "bool"
        }
      ],
      "payable": false,
      "stateMutability": "view",
      "type": "function",
      "signature": "0x94e67bdb"
    },
    {
      "constant": true,
      "inputs": [
        {
          "name": "",
          "type": "address"
        }
      ],
      "name": "users",
      "outputs": [
        {
          "name": "name",
          "type": "string"
        },
        {
          "name": "username",
          "type": "string"
        },
        {
          "name": "passwordHash",
          "type": "bytes32"
        },
        {
          "name": "ethAddress",
          "type": "address"
        },
        {
          "name": "universityId",
          "type": "uint256"
        },
        {
          "name": "isActive",
          "type": "bool"
        },
        {
          "name": "courseName",
          "type": "string"
        },
        {
          "name": "role",
          "type": "string"
        }
      ],
      "payable": false,
      "stateMutability": "view",
      "type": "function",
      "signature": "0xa87430ba"
    },
    {
      "constant": false,
      "inputs": [
        {
          "name": "_name",
          "type": "string"
        },
        {
          "name": "_password",
          "type": "string"
        },
        {
          "name": "_ethAddress",
          "type": "address"
        },
        {
          "name": "_universityId",
          "type": "uint256"
        },
        {
          "name": "_courseName",
          "type": "string"
        },
        {
          "name": "_role",
          "type": "string"
        }
      ],
      "name": "addUser",
      "outputs": [],
      "payable": false,
      "stateMutability": "nonpayable",
      "type": "function",
      "signature": "0xd6aa1d2a"
    },
    {
      "constant": true,
      "inputs": [
        {
          "name": "_name",
          "type": "string"
        },
        {
          "name": "_password",
          "type": "string"
        },
        {
          "name": "_ethAddress",
          "type": "address"
        }
      ],
      "name": "getUser",
      "outputs": [
        {
          "name": "",
          "type": "bool"
        }
      ],
      "payable": false,
      "stateMutability": "view",
      "type": "function",
      "signature": "0xd88b5539"
    },
    {
      "constant": true,
      "inputs": [
        {
          "name": "_ethAddress",
          "type": "address"
        }
      ],
      "name": "getRole",
      "outputs": [
        {
          "name": "",
          "type": "string"
        }
      ],
      "payable": false,
      "stateMutability": "view",
      "type": "function",
      "signature": "0x44276733"
    },
    {
      "constant": true,
      "inputs": [],
      "name": "getAllUsers",
      "outputs": [
        {
          "components": [
            {
              "name": "name",
              "type": "string"
            },
            {
              "name": "username",
              "type": "string"
            },
            {
              "name": "passwordHash",
              "type": "bytes32"
            },
            {
              "name": "ethAddress",
              "type": "address"
            },
            {
              "name": "universityId",
              "type": "uint256"
            },
            {
              "name": "isActive",
              "type": "bool"
            },
            {
              "name": "courseName",
              "type": "string"
            },
            {
              "name": "role",
              "type": "string"
            }
          ],
          "name": "",
          "type": "tuple[]"
        }
      ],
      "payable": false,
      "stateMutability": "view",
      "type": "function",
      "signature": "0xe2842d79"
    },
    {
      "constant": false,
      "inputs": [
        {
          "name": "_ethAddress",
          "type": "address"
        }
      ],
      "name": "deleteUser",
      "outputs": [],
      "payable": false,
      "stateMutability": "nonpayable",
      "type": "function",
      "signature": "0x5c60f226"
    }
  ],
  "bytecode": "0x608060405234801561001057600080fd5b50611b7b806100206000396000f3fe608060405260043610610099576000357c0100000000000000000000000000000000000000000000000000000000900463ffffffff16806307973ccf1461009e57806344276733146100c9578063502c9bd5146101065780635c60f2261461014357806394e67bdb1461016c578063a87430ba146101a9578063d6aa1d2a146101ed578063d88b553914610216578063e2842d7914610253575b600080fd5b3480156100aa57600080fd5b506100b361027e565b6040516100c091906119d1565b60405180910390f35b3480156100d557600080fd5b506100f060048036036100eb9190810190611423565b610284565b6040516100fd91906118b5565b60405180910390f35b34801561011257600080fd5b5061012d600480360361012891908101906115b4565b61043c565b60405161013a919061185d565b60405180910390f35b34801561014f57600080fd5b5061016a60048036036101659190810190611423565b61047a565b005b34801561017857600080fd5b50610193600480360361018e91908101906115b4565b6105c1565b6040516101a0919061189a565b60405180910390f35b3480156101b557600080fd5b506101d060048036036101cb9190810190611423565b6105e1565b6040516101e49897969594939291906118d7565b60405180910390f35b3480156101f957600080fd5b50610214600480360361020f91908101906114cb565b6108b6565b005b34801561022257600080fd5b5061023d6004803603610238919081019061144c565b610c30565b60405161024a919061189a565b60405180910390f35b34801561025f57600080fd5b50610268610d2d565b6040516102759190611878565b60405180910390f35b60005481565b6060600073ffffffffffffffffffffffffffffffffffffffff16600260008473ffffffffffffffffffffffffffffffffffffffff1673ffffffffffffffffffffffffffffffffffffffff16815260200190815260200160002060030160009054906101000a900473ffffffffffffffffffffffffffffffffffffffff1673ffffffffffffffffffffffffffffffffffffffff161415151561035a576040517f08c379a0000000000000000000000000000000000000000000000000000000008152600401610351906119b1565b60405180910390fd5b600260008373ffffffffffffffffffffffffffffffffffffffff1673ffffffffffffffffffffffffffffffffffffffff1681526020019081526020016000206007018054600181600116156101000203166002900480601f0160208091040260200160405190810160405280929190818152602001828054600181600116156101000203166002900480156104305780601f1061040557610100808354040283529160200191610430565b820191906000526020600020905b81548152906001019060200180831161041357829003601f168201915b50505050509050919050565b60018181548110151561044b57fe5b906000526020600020016000915054906101000a900473ffffffffffffffffffffffffffffffffffffffff1681565b600073ffffffffffffffffffffffffffffffffffffffff16600260008373ffffffffffffffffffffffffffffffffffffffff1673ffffffffffffffffffffffffffffffffffffffff16815260200190815260200160002060030160009054906101000a900473ffffffffffffffffffffffffffffffffffffffff1673ffffffffffffffffffffffffffffffffffffffff161415151561051857600080fd5b6000600102600260008373ffffffffffffffffffffffffffffffffffffffff1673ffffffffffffffffffffffffffffffffffffffff168152602001908152602001600020600201819055506000600260008373ffffffffffffffffffffffffffffffffffffffff1673ffffffffffffffffffffffffffffffffffffffff16815260200190815260200160002060050160006101000a81548160ff02191690831515021790555050565b60036020528060005260406000206000915054906101000a900460ff1681565b6002602052806000526040600020600091509050806000018054600181600116156101000203166002900480601f01602080910402602001604051908101604052809291908181526020018280546001816001161561010002031660029004801561068d5780601f106106625761010080835404028352916020019161068d565b820191906000526020600020905b81548152906001019060200180831161067057829003601f168201915b505050505090806001018054600181600116156101000203166002900480601f01602080910402602001604051908101604052809291908181526020018280546001816001161561010002031660029004801561072b5780601f106107005761010080835404028352916020019161072b565b820191906000526020600020905b81548152906001019060200180831161070e57829003601f168201915b5050505050908060020154908060030160009054906101000a900473ffffffffffffffffffffffffffffffffffffffff16908060040154908060050160009054906101000a900460ff1690806006018054600181600116156101000203166002900480601f01602080910402602001604051908101604052809291908181526020018280546001816001161561010002031660029004801561080e5780601f106107e35761010080835404028352916020019161080e565b820191906000526020600020905b8154815290600101906020018083116107f157829003601f168201915b505050505090806007018054600181600116156101000203166002900480601f0160208091040260200160405190810160405280929190818152602001828054600181600116156101000203166002900480156108ac5780601f10610881576101008083540402835291602001916108ac565b820191906000526020600020905b81548152906001019060200180831161088f57829003601f168201915b5050505050905088565b600073ffffffffffffffffffffffffffffffffffffffff16600260008673ffffffffffffffffffffffffffffffffffffffff1673ffffffffffffffffffffffffffffffffffffffff16815260200190815260200160002060030160009054906101000a900473ffffffffffffffffffffffffffffffffffffffff1673ffffffffffffffffffffffffffffffffffffffff16141515610989576040517f08c379a000000000000000000000000000000000000000000000000000000000815260040161098090611991565b60405180910390fd5b6003600084815260200190815260200160002060009054906101000a900460ff161515156109ec576040517f08c379a00000000000000000000000000000000000000000000000000000000081526004016109e390611971565b60405180910390fd5b60016003600085815260200190815260200160002060006101000a81548160ff021916908315150217905550600085805190602001209050610a2c61123e565b610100604051908101604052808981526020018981526020018381526020018773ffffffffffffffffffffffffffffffffffffffff16815260200186815260200160011515815260200185815260200184815250905060018690806001815401808255809150509060018203906000526020600020016000909192909190916101000a81548173ffffffffffffffffffffffffffffffffffffffff021916908373ffffffffffffffffffffffffffffffffffffffff1602179055505080600260008873ffffffffffffffffffffffffffffffffffffffff1673ffffffffffffffffffffffffffffffffffffffff1681526020019081526020016000206000820151816000019080519060200190610b4492919061129f565b506020820151816001019080519060200190610b6192919061129f565b506040820151816002015560608201518160030160006101000a81548173ffffffffffffffffffffffffffffffffffffffff021916908373ffffffffffffffffffffffffffffffffffffffff1602179055506080820151816004015560a08201518160050160006101000a81548160ff02191690831515021790555060c0820151816006019080519060200190610bf992919061129f565b5060e0820151816007019080519060200190610c1692919061129f565b509050506001600054016000819055505050505050505050565b600080838051906020012090506060859050600073ffffffffffffffffffffffffffffffffffffffff16600260008673ffffffffffffffffffffffffffffffffffffffff1673ffffffffffffffffffffffffffffffffffffffff16815260200190815260200160002060030160009054906101000a900473ffffffffffffffffffffffffffffffffffffffff1673ffffffffffffffffffffffffffffffffffffffff1614158015610d22575081600260008673ffffffffffffffffffffffffffffffffffffffff1673ffffffffffffffffffffffffffffffffffffffff16815260200190815260200160002060020154145b925050509392505050565b606080600180549050604051908082528060200260200182016040528015610d6f57816020015b610d5c61131f565b815260200190600190039081610d545790505b50905060008090505b600180549050811015611236576000600182815481101515610d9657fe5b9060005260206000200160009054906101000a900473ffffffffffffffffffffffffffffffffffffffff169050600073ffffffffffffffffffffffffffffffffffffffff16600260008373ffffffffffffffffffffffffffffffffffffffff1673ffffffffffffffffffffffffffffffffffffffff16815260200190815260200160002060030160009054906101000a900473ffffffffffffffffffffffffffffffffffffffff1673ffffffffffffffffffffffffffffffffffffffff1614158015610eae5750600260008273ffffffffffffffffffffffffffffffffffffffff1673ffffffffffffffffffffffffffffffffffffffff16815260200190815260200160002060050160009054906101000a900460ff165b1561122857600260008273ffffffffffffffffffffffffffffffffffffffff1673ffffffffffffffffffffffffffffffffffffffff1681526020019081526020016000206101006040519081016040529081600082018054600181600116156101000203166002900480601f016020809104026020016040519081016040528092919081815260200182805460018160011615610100020316600290048015610f985780601f10610f6d57610100808354040283529160200191610f98565b820191906000526020600020905b815481529060010190602001808311610f7b57829003601f168201915b50505050508152602001600182018054600181600116156101000203166002900480601f01602080910402602001604051908101604052809291908181526020018280546001816001161561010002031660029004801561103a5780601f1061100f5761010080835404028352916020019161103a565b820191906000526020600020905b81548152906001019060200180831161101d57829003601f168201915b50505050508152602001600282015481526020016003820160009054906101000a900473ffffffffffffffffffffffffffffffffffffffff1673ffffffffffffffffffffffffffffffffffffffff1673ffffffffffffffffffffffffffffffffffffffff168152602001600482015481526020016005820160009054906101000a900460ff16151515158152602001600682018054600181600116156101000203166002900480601f0160208091040260200160405190810160405280929190818152602001828054600181600116156101000203166002900480156111615780601f1061113657610100808354040283529160200191611161565b820191906000526020600020905b81548152906001019060200180831161114457829003601f168201915b50505050508152602001600782018054600181600116156101000203166002900480601f0160208091040260200160405190810160405280929190818152602001828054600181600116156101000203166002900480156112035780601f106111d857610100808354040283529160200191611203565b820191906000526020600020905b8154815290600101906020018083116111e657829003601f168201915b505050505081525050838381518110151561121a57fe5b906020019060200201819052505b508080600101915050610d78565b508091505090565b61010060405190810160405280606081526020016060815260200160008019168152602001600073ffffffffffffffffffffffffffffffffffffffff1681526020016000815260200160001515815260200160608152602001606081525090565b828054600181600116156101000203166002900490600052602060002090601f016020900481019282601f106112e057805160ff191683800117855561130e565b8280016001018555821561130e579182015b8281111561130d5782518255916020019190600101906112f2565b5b50905061131b9190611380565b5090565b61010060405190810160405280606081526020016060815260200160008019168152602001600073ffffffffffffffffffffffffffffffffffffffff1681526020016000815260200160001515815260200160608152602001606081525090565b6113a291905b8082111561139e576000816000905550600101611386565b5090565b90565b60006113b18235611ad2565b905092915050565b600082601f83011215156113cc57600080fd5b81356113df6113da82611a19565b6119ec565b915080825260208301602083018583830111156113fb57600080fd5b611406838284611aee565b50505092915050565b600061141b8235611ae4565b905092915050565b60006020828403121561143557600080fd5b6000611443848285016113a5565b91505092915050565b60008060006060848603121561146157600080fd5b600084013567ffffffffffffffff81111561147b57600080fd5b611487868287016113b9565b935050602084013567ffffffffffffffff8111156114a457600080fd5b6114b0868287016113b9565b92505060406114c1868287016113a5565b9150509250925092565b60008060008060008060c087890312156114e457600080fd5b600087013567ffffffffffffffff8111156114fe57600080fd5b61150a89828a016113b9565b965050602087013567ffffffffffffffff81111561152757600080fd5b61153389828a016113b9565b955050604061154489828a016113a5565b945050606061155589828a0161140f565b935050608087013567ffffffffffffffff81111561157257600080fd5b61157e89828a016113b9565b92505060a087013567ffffffffffffffff81111561159b57600080fd5b6115a789828a016113b9565b9150509295509295509295565b6000602082840312156115c657600080fd5b60006115d48482850161140f565b91505092915050565b6115e681611a80565b82525050565b60006115f782611a52565b8084526020840193508360208202850161161085611a45565b60005b8481101561164957838303885261162b838351611789565b925061163682611a73565b9150602088019750600181019050611613565b508196508694505050505092915050565b61166381611a92565b82525050565b61167281611a9e565b82525050565b600061168382611a68565b808452611697816020860160208601611afd565b6116a081611b30565b602085010191505092915050565b60006116b982611a5d565b8084526116cd816020860160208601611afd565b6116d681611b30565b602085010191505092915050565b6000602082527f556e697665727369747920494420616c726561647920726567697374657265646020830152604082019050919050565b6000601782527f5573657220616c726561647920726567697374657265640000000000000000006020830152604082019050919050565b6000601282527f5553657220646f65736e277420657869737400000000000000000000000000006020830152604082019050919050565b60006101008301600083015184820360008601526117a782826116ae565b915050602083015184820360208601526117c182826116ae565b91505060408301516117d66040860182611669565b5060608301516117e960608601826115dd565b5060808301516117fc608086018261184e565b5060a083015161180f60a086018261165a565b5060c083015184820360c086015261182782826116ae565b91505060e083015184820360e086015261184182826116ae565b9150508091505092915050565b61185781611ac8565b82525050565b600060208201905061187260008301846115dd565b92915050565b6000602082019050818103600083015261189281846115ec565b905092915050565b60006020820190506118af600083018461165a565b92915050565b600060208201905081810360008301526118cf8184611678565b905092915050565b60006101008201905081810360008301526118f2818b6116ae565b90508181036020830152611906818a6116ae565b90506119156040830189611669565b61192260608301886115dd565b61192f608083018761184e565b61193c60a083018661165a565b81810360c083015261194e81856116ae565b905081810360e083015261196281846116ae565b90509998505050505050505050565b6000602082019050818103600083015261198a816116e4565b9050919050565b600060208201905081810360008301526119aa8161171b565b9050919050565b600060208201905081810360008301526119ca81611752565b9050919050565b60006020820190506119e6600083018461184e565b92915050565b6000604051905081810181811067ffffffffffffffff82111715611a0f57600080fd5b8060405250919050565b600067ffffffffffffffff821115611a3057600080fd5b601f19601f8301169050602081019050919050565b6000602082019050919050565b600081519050919050565b600081519050919050565b600081519050919050565b6000602082019050919050565b6000611a8b82611aa8565b9050919050565b60008115159050919050565b6000819050919050565b600073ffffffffffffffffffffffffffffffffffffffff82169050919050565b6000819050919050565b6000611add82611aa8565b9050919050565b6000819050919050565b82818337600083830152505050565b60005b83811015611b1b578082015181840152602081019050611b00565b83811115611b2a576000848401525b50505050565b6000601f19601f830116905091905056fea265627a7a7230582089486db74793ce02754a2f1bffa9bae86941fcb005908dd7da9513698f8ff74e6c6578706572696d656e74616cf50037",
  "source": "pragma solidity 0.5.0;\r\npragma experimental ABIEncoderV2;\r\n\r\ncontract User {\r\n    uint256 public userCount;\r\n    struct UserStruct {\r\n        string name;\r\n        string username;\r\n        bytes32 passwordHash;\r\n        address ethAddress;\r\n        uint256 universityId;\r\n        bool isActive;\r\n        string courseName;\r\n        string role;\r\n    }\r\n    address[] public userAddresses;\r\n    mapping(address => UserStruct) public users;\r\n    mapping(uint256 => bool) public universityIdExists;\r\n\r\n    function addUser(\r\n        string memory _name,\r\n        string memory _password,\r\n        address _ethAddress,\r\n        uint256 _universityId,\r\n        string memory _courseName,\r\n        string memory _role\r\n    ) public {\r\n        require(users[_ethAddress].ethAddress == address(0), \"User already registered\");\r\n        require(!universityIdExists[_universityId], \"University ID already registered\");\r\n\r\n        universityIdExists[_universityId] = true;\r\n        \r\n        bytes32 hashedPassword = keccak256(bytes(_password));\r\n        \r\n        UserStruct memory newUser = UserStruct({\r\n            name: _name,\r\n            username: _name,\r\n            passwordHash: hashedPassword,\r\n            ethAddress: _ethAddress,\r\n            universityId: _universityId,\r\n            role:_role,\r\n            courseName:_courseName,\r\n            isActive: true\r\n        });\r\n        userAddresses.push(_ethAddress);\r\n        users[_ethAddress] = newUser;\r\n        userCount=userCount+1;\r\n    }\r\n\r\n    function getUser(string memory _name, string memory _password, address _ethAddress) public view returns (bool) {\r\n        bytes32 hash = keccak256(bytes(_password));\r\n        string memory nm = _name;\r\n        \r\n        return (\r\n            users[_ethAddress].ethAddress != address(0)&&\r\n            users[_ethAddress].passwordHash == hash\r\n        );\r\n        \r\n    }\r\n    function getRole(address _ethAddress) public view returns (string memory){\r\n    require(users[_ethAddress].ethAddress !=address(0),\"USer doesn't exist\");\r\n    return users[_ethAddress].role;\r\n    }\r\n          function getAllUsers() public view returns (UserStruct[] memory) {\r\n        UserStruct[] memory allUsers = new UserStruct[](userAddresses.length);\r\n        \r\n        for (uint256 index = 0; index < userAddresses.length; index++) {\r\n            address userAddress = userAddresses[index];\r\n            if (users[userAddress].ethAddress != address(0) && users[userAddress].isActive) {\r\n                allUsers[index] = users[userAddress];\r\n            }\r\n        }\r\n\r\n        return allUsers;\r\n    }\r\n    function deleteUser(address _ethAddress) public{\r\n    require(users[_ethAddress].ethAddress != address(0));\r\n  //      users[_ethAddress].ethAddress = 0x0;\r\n        users[_ethAddress].passwordHash = 0x0; \r\n        users[_ethAddress].isActive = false; \r\n    }\r\n\r\n\r\n\r\n}",
  "sourcePath": "C:/Users/HP/project/src/contracts/User.sol",
  "compiler": {
    "name": "solc",
    "version": "0.5.0+commit.1d4f565a.Emscripten.clang"
  },
  "schemaVersion": "3.0.2",
  "updatedAt": "2023-08-20T20:04:11.529Z",
  "devdoc": {
    "methods": {}
  },
  "userdoc": {
    "methods": {}
  }
}